{
  "_format": "hh-sol-artifact-1",
  "contractName": "NFTCollectionContract",
  "sourceName": "src/NFTMarketplace.sol 19-09-20-166.sol",
  "abi": [
    {
      "inputs": [
        {
          "internalType": "string",
          "name": "name",
          "type": "string"
        },
        {
          "internalType": "string",
          "name": "symbol",
          "type": "string"
        },
        {
          "internalType": "address",
          "name": "collectionOwner",
          "type": "address"
        },
        {
          "internalType": "address",
          "name": "tokenAddress",
          "type": "address"
        }
      ],
      "stateMutability": "nonpayable",
      "type": "constructor"
    },
    {
      "inputs": [
        {
          "internalType": "address",
          "name": "sender",
          "type": "address"
        },
        {
          "internalType": "uint256",
          "name": "tokenId",
          "type": "uint256"
        },
        {
          "internalType": "address",
          "name": "owner",
          "type": "address"
        }
      ],
      "name": "ERC721IncorrectOwner",
      "type": "error"
    },
    {
      "inputs": [
        {
          "internalType": "address",
          "name": "operator",
          "type": "address"
        },
        {
          "internalType": "uint256",
          "name": "tokenId",
          "type": "uint256"
        }
      ],
      "name": "ERC721InsufficientApproval",
      "type": "error"
    },
    {
      "inputs": [
        {
          "internalType": "address",
          "name": "approver",
          "type": "address"
        }
      ],
      "name": "ERC721InvalidApprover",
      "type": "error"
    },
    {
      "inputs": [
        {
          "internalType": "address",
          "name": "operator",
          "type": "address"
        }
      ],
      "name": "ERC721InvalidOperator",
      "type": "error"
    },
    {
      "inputs": [
        {
          "internalType": "address",
          "name": "owner",
          "type": "address"
        }
      ],
      "name": "ERC721InvalidOwner",
      "type": "error"
    },
    {
      "inputs": [
        {
          "internalType": "address",
          "name": "receiver",
          "type": "address"
        }
      ],
      "name": "ERC721InvalidReceiver",
      "type": "error"
    },
    {
      "inputs": [
        {
          "internalType": "address",
          "name": "sender",
          "type": "address"
        }
      ],
      "name": "ERC721InvalidSender",
      "type": "error"
    },
    {
      "inputs": [
        {
          "internalType": "uint256",
          "name": "tokenId",
          "type": "uint256"
        }
      ],
      "name": "ERC721NonexistentToken",
      "type": "error"
    },
    {
      "inputs": [
        {
          "internalType": "address",
          "name": "owner",
          "type": "address"
        }
      ],
      "name": "OwnableInvalidOwner",
      "type": "error"
    },
    {
      "inputs": [
        {
          "internalType": "address",
          "name": "account",
          "type": "address"
        }
      ],
      "name": "OwnableUnauthorizedAccount",
      "type": "error"
    },
    {
      "anonymous": false,
      "inputs": [
        {
          "indexed": true,
          "internalType": "address",
          "name": "owner",
          "type": "address"
        },
        {
          "indexed": true,
          "internalType": "address",
          "name": "approved",
          "type": "address"
        },
        {
          "indexed": true,
          "internalType": "uint256",
          "name": "tokenId",
          "type": "uint256"
        }
      ],
      "name": "Approval",
      "type": "event"
    },
    {
      "anonymous": false,
      "inputs": [
        {
          "indexed": true,
          "internalType": "address",
          "name": "owner",
          "type": "address"
        },
        {
          "indexed": true,
          "internalType": "address",
          "name": "operator",
          "type": "address"
        },
        {
          "indexed": false,
          "internalType": "bool",
          "name": "approved",
          "type": "bool"
        }
      ],
      "name": "ApprovalForAll",
      "type": "event"
    },
    {
      "anonymous": false,
      "inputs": [
        {
          "indexed": false,
          "internalType": "uint256",
          "name": "_fromTokenId",
          "type": "uint256"
        },
        {
          "indexed": false,
          "internalType": "uint256",
          "name": "_toTokenId",
          "type": "uint256"
        }
      ],
      "name": "BatchMetadataUpdate",
      "type": "event"
    },
    {
      "anonymous": false,
      "inputs": [
        {
          "indexed": false,
          "internalType": "uint256",
          "name": "_tokenId",
          "type": "uint256"
        }
      ],
      "name": "MetadataUpdate",
      "type": "event"
    },
    {
      "anonymous": false,
      "inputs": [
        {
          "indexed": true,
          "internalType": "address",
          "name": "previousOwner",
          "type": "address"
        },
        {
          "indexed": true,
          "internalType": "address",
          "name": "newOwner",
          "type": "address"
        }
      ],
      "name": "OwnershipTransferred",
      "type": "event"
    },
    {
      "anonymous": false,
      "inputs": [
        {
          "indexed": true,
          "internalType": "address",
          "name": "from",
          "type": "address"
        },
        {
          "indexed": true,
          "internalType": "address",
          "name": "to",
          "type": "address"
        },
        {
          "indexed": true,
          "internalType": "uint256",
          "name": "tokenId",
          "type": "uint256"
        }
      ],
      "name": "Transfer",
      "type": "event"
    },
    {
      "inputs": [],
      "name": "acceptedToken",
      "outputs": [
        {
          "internalType": "contract IERC20",
          "name": "",
          "type": "address"
        }
      ],
      "stateMutability": "view",
      "type": "function"
    },
    {
      "inputs": [
        {
          "internalType": "address",
          "name": "to",
          "type": "address"
        },
        {
          "internalType": "uint256",
          "name": "tokenId",
          "type": "uint256"
        }
      ],
      "name": "approve",
      "outputs": [],
      "stateMutability": "nonpayable",
      "type": "function"
    },
    {
      "inputs": [
        {
          "internalType": "address",
          "name": "owner",
          "type": "address"
        }
      ],
      "name": "balanceOf",
      "outputs": [
        {
          "internalType": "uint256",
          "name": "",
          "type": "uint256"
        }
      ],
      "stateMutability": "view",
      "type": "function"
    },
    {
      "inputs": [
        {
          "internalType": "uint256",
          "name": "tokenId",
          "type": "uint256"
        }
      ],
      "name": "buyNFT",
      "outputs": [],
      "stateMutability": "nonpayable",
      "type": "function"
    },
    {
      "inputs": [],
      "name": "getAllNFTs",
      "outputs": [
        {
          "components": [
            {
              "internalType": "uint256",
              "name": "id",
              "type": "uint256"
            },
            {
              "internalType": "address",
              "name": "creator",
              "type": "address"
            },
            {
              "internalType": "address",
              "name": "owner",
              "type": "address"
            },
            {
              "internalType": "string",
              "name": "uri",
              "type": "string"
            },
            {
              "internalType": "uint256",
              "name": "price",
              "type": "uint256"
            },
            {
              "internalType": "bool",
              "name": "isForSale",
              "type": "bool"
            }
          ],
          "internalType": "struct NFTCollectionContract.NFT[]",
          "name": "",
          "type": "tuple[]"
        }
      ],
      "stateMutability": "view",
      "type": "function"
    },
    {
      "inputs": [
        {
          "internalType": "uint256",
          "name": "tokenId",
          "type": "uint256"
        }
      ],
      "name": "getApproved",
      "outputs": [
        {
          "internalType": "address",
          "name": "",
          "type": "address"
        }
      ],
      "stateMutability": "view",
      "type": "function"
    },
    {
      "inputs": [
        {
          "internalType": "address",
          "name": "owner",
          "type": "address"
        }
      ],
      "name": "getNFTsByOwner",
      "outputs": [
        {
          "components": [
            {
              "internalType": "uint256",
              "name": "id",
              "type": "uint256"
            },
            {
              "internalType": "address",
              "name": "creator",
              "type": "address"
            },
            {
              "internalType": "address",
              "name": "owner",
              "type": "address"
            },
            {
              "internalType": "string",
              "name": "uri",
              "type": "string"
            },
            {
              "internalType": "uint256",
              "name": "price",
              "type": "uint256"
            },
            {
              "internalType": "bool",
              "name": "isForSale",
              "type": "bool"
            }
          ],
          "internalType": "struct NFTCollectionContract.NFT[]",
          "name": "",
          "type": "tuple[]"
        }
      ],
      "stateMutability": "view",
      "type": "function"
    },
    {
      "inputs": [
        {
          "internalType": "address",
          "name": "owner",
          "type": "address"
        },
        {
          "internalType": "address",
          "name": "operator",
          "type": "address"
        }
      ],
      "name": "isApprovedForAll",
      "outputs": [
        {
          "internalType": "bool",
          "name": "",
          "type": "bool"
        }
      ],
      "stateMutability": "view",
      "type": "function"
    },
    {
      "inputs": [
        {
          "internalType": "string",
          "name": "tokenURI",
          "type": "string"
        },
        {
          "internalType": "uint256",
          "name": "price",
          "type": "uint256"
        }
      ],
      "name": "mintNFT",
      "outputs": [
        {
          "internalType": "uint256",
          "name": "",
          "type": "uint256"
        }
      ],
      "stateMutability": "nonpayable",
      "type": "function"
    },
    {
      "inputs": [],
      "name": "name",
      "outputs": [
        {
          "internalType": "string",
          "name": "",
          "type": "string"
        }
      ],
      "stateMutability": "view",
      "type": "function"
    },
    {
      "inputs": [
        {
          "internalType": "uint256",
          "name": "",
          "type": "uint256"
        }
      ],
      "name": "nfts",
      "outputs": [
        {
          "internalType": "uint256",
          "name": "id",
          "type": "uint256"
        },
        {
          "internalType": "address",
          "name": "creator",
          "type": "address"
        },
        {
          "internalType": "address",
          "name": "owner",
          "type": "address"
        },
        {
          "internalType": "string",
          "name": "uri",
          "type": "string"
        },
        {
          "internalType": "uint256",
          "name": "price",
          "type": "uint256"
        },
        {
          "internalType": "bool",
          "name": "isForSale",
          "type": "bool"
        }
      ],
      "stateMutability": "view",
      "type": "function"
    },
    {
      "inputs": [],
      "name": "owner",
      "outputs": [
        {
          "internalType": "address",
          "name": "",
          "type": "address"
        }
      ],
      "stateMutability": "view",
      "type": "function"
    },
    {
      "inputs": [
        {
          "internalType": "uint256",
          "name": "tokenId",
          "type": "uint256"
        }
      ],
      "name": "ownerOf",
      "outputs": [
        {
          "internalType": "address",
          "name": "",
          "type": "address"
        }
      ],
      "stateMutability": "view",
      "type": "function"
    },
    {
      "inputs": [],
      "name": "renounceOwnership",
      "outputs": [],
      "stateMutability": "nonpayable",
      "type": "function"
    },
    {
      "inputs": [
        {
          "internalType": "address",
          "name": "from",
          "type": "address"
        },
        {
          "internalType": "address",
          "name": "to",
          "type": "address"
        },
        {
          "internalType": "uint256",
          "name": "tokenId",
          "type": "uint256"
        }
      ],
      "name": "safeTransferFrom",
      "outputs": [],
      "stateMutability": "nonpayable",
      "type": "function"
    },
    {
      "inputs": [
        {
          "internalType": "address",
          "name": "from",
          "type": "address"
        },
        {
          "internalType": "address",
          "name": "to",
          "type": "address"
        },
        {
          "internalType": "uint256",
          "name": "tokenId",
          "type": "uint256"
        },
        {
          "internalType": "bytes",
          "name": "data",
          "type": "bytes"
        }
      ],
      "name": "safeTransferFrom",
      "outputs": [],
      "stateMutability": "nonpayable",
      "type": "function"
    },
    {
      "inputs": [
        {
          "internalType": "address",
          "name": "operator",
          "type": "address"
        },
        {
          "internalType": "bool",
          "name": "approved",
          "type": "bool"
        }
      ],
      "name": "setApprovalForAll",
      "outputs": [],
      "stateMutability": "nonpayable",
      "type": "function"
    },
    {
      "inputs": [
        {
          "internalType": "bytes4",
          "name": "interfaceId",
          "type": "bytes4"
        }
      ],
      "name": "supportsInterface",
      "outputs": [
        {
          "internalType": "bool",
          "name": "",
          "type": "bool"
        }
      ],
      "stateMutability": "view",
      "type": "function"
    },
    {
      "inputs": [],
      "name": "symbol",
      "outputs": [
        {
          "internalType": "string",
          "name": "",
          "type": "string"
        }
      ],
      "stateMutability": "view",
      "type": "function"
    },
    {
      "inputs": [
        {
          "internalType": "uint256",
          "name": "tokenId",
          "type": "uint256"
        }
      ],
      "name": "tokenURI",
      "outputs": [
        {
          "internalType": "string",
          "name": "",
          "type": "string"
        }
      ],
      "stateMutability": "view",
      "type": "function"
    },
    {
      "inputs": [
        {
          "internalType": "address",
          "name": "from",
          "type": "address"
        },
        {
          "internalType": "address",
          "name": "to",
          "type": "address"
        },
        {
          "internalType": "uint256",
          "name": "tokenId",
          "type": "uint256"
        }
      ],
      "name": "transferFrom",
      "outputs": [],
      "stateMutability": "nonpayable",
      "type": "function"
    },
    {
      "inputs": [
        {
          "internalType": "address",
          "name": "newOwner",
          "type": "address"
        }
      ],
      "name": "transferOwnership",
      "outputs": [],
      "stateMutability": "nonpayable",
      "type": "function"
    }
  ],
  "bytecode": "0x60806040523480156200001157600080fd5b5060405162002309380380620023098339810160408190526200003491620001f0565b81848460006200004583826200030e565b5060016200005482826200030e565b5050506001600160a01b0381166200008657604051631e4fbdf760e01b81526000600482015260240160405180910390fd5b6200009181620000bc565b50600980546001600160a01b0319166001600160a01b039290921691909117905550620003da915050565b600780546001600160a01b038381166001600160a01b0319831681179093556040519116919082907f8be0079c531659141344cd1fd0a4f28419497f9722a3daafe3b4186f6b6457e090600090a35050565b634e487b7160e01b600052604160045260246000fd5b600082601f8301126200013657600080fd5b81516001600160401b03808211156200015357620001536200010e565b604051601f8301601f19908116603f011681019082821181831017156200017e576200017e6200010e565b816040528381526020925086838588010111156200019b57600080fd5b600091505b83821015620001bf5785820183015181830184015290820190620001a0565b600093810190920192909252949350505050565b80516001600160a01b0381168114620001eb57600080fd5b919050565b600080600080608085870312156200020757600080fd5b84516001600160401b03808211156200021f57600080fd5b6200022d8883890162000124565b955060208701519150808211156200024457600080fd5b50620002538782880162000124565b9350506200026460408601620001d3565b91506200027460608601620001d3565b905092959194509250565b600181811c908216806200029457607f821691505b602082108103620002b557634e487b7160e01b600052602260045260246000fd5b50919050565b601f8211156200030957600081815260208120601f850160051c81016020861015620002e45750805b601f850160051c820191505b818110156200030557828155600101620002f0565b5050505b505050565b81516001600160401b038111156200032a576200032a6200010e565b62000342816200033b84546200027f565b84620002bb565b602080601f8311600181146200037a5760008415620003615750858301515b600019600386901b1c1916600185901b17855562000305565b600085815260208120601f198616915b82811015620003ab578886015182559484019460019091019084016200038a565b5085821015620003ca5787850151600019600388901b60f8161c191681555b5050505050600190811b01905550565b611f1f80620003ea6000396000f3fe608060405234801561001057600080fd5b50600436106101425760003560e01c806370a08231116100b8578063b88d4fde1161007c578063b88d4fde146102b0578063c87b56dd146102c3578063e0391b09146102d6578063e2afe8b3146102eb578063e985e9c5146102fe578063f2fde38b1461031157600080fd5b806370a0823114610269578063715018a61461027c5780638da5cb5b1461028457806395d89b4114610295578063a22cb4651461029d57600080fd5b8063265aa6211161010a578063265aa621146101d757806342842e0e146101fc578063451c3d801461020f57806351ed8288146102225780635afa3a72146102355780636352211e1461025657600080fd5b806301ffc9a71461014757806306fdde031461016f578063081812fc14610184578063095ea7b3146101af57806323b872dd146101c4575b600080fd5b61015a610155366004611897565b610324565b60405190151581526020015b60405180910390f35b61017761034f565b6040516101669190611904565b610197610192366004611917565b6103e1565b6040516001600160a01b039091168152602001610166565b6101c26101bd36600461194c565b61040a565b005b6101c26101d2366004611976565b610419565b6101ea6101e5366004611917565b6104a9565b604051610166969594939291906119b2565b6101c261020a366004611976565b610578565b600954610197906001600160a01b031681565b6101c2610230366004611917565b610598565b610248610243366004611a8a565b61078a565b604051908152602001610166565b610197610264366004611917565b610958565b610248610277366004611ae3565b610963565b6101c26109ab565b6007546001600160a01b0316610197565b6101776109bf565b6101c26102ab366004611b0c565b6109ce565b6101c26102be366004611b43565b6109d9565b6101776102d1366004611917565b6109f0565b6102de610b01565b6040516101669190611bbf565b6102de6102f9366004611ae3565b610cdd565b61015a61030c366004611c70565b610f2d565b6101c261031f366004611ae3565b610f5b565b60006001600160e01b03198216632483248360e11b1480610349575061034982610f99565b92915050565b60606000805461035e90611ca3565b80601f016020809104026020016040519081016040528092919081815260200182805461038a90611ca3565b80156103d75780601f106103ac576101008083540402835291602001916103d7565b820191906000526020600020905b8154815290600101906020018083116103ba57829003601f168201915b5050505050905090565b60006103ec82610fe9565b506000828152600460205260409020546001600160a01b0316610349565b610415828233611022565b5050565b6001600160a01b03821661044857604051633250574960e11b8152600060048201526024015b60405180910390fd5b600061045583833361102f565b9050836001600160a01b0316816001600160a01b0316146104a3576040516364283d7b60e01b81526001600160a01b038086166004830152602482018490528216604482015260640161043f565b50505050565b600a60205260009081526040902080546001820154600283015460038401805493946001600160a01b039384169493909216926104e590611ca3565b80601f016020809104026020016040519081016040528092919081815260200182805461051190611ca3565b801561055e5780601f106105335761010080835404028352916020019161055e565b820191906000526020600020905b81548152906001019060200180831161054157829003601f168201915b50505050600483015460059093015491929160ff16905086565b610593838383604051806020016040528060008152506109d9565b505050565b6000818152600a60205260409020600581015460ff166105f05760405162461bcd60e51b81526020600482015260136024820152724e4654206973206e6f7420666f722073616c6560681b604482015260640161043f565b6002810154336001600160a01b039091160361064e5760405162461bcd60e51b815260206004820152601860248201527f596f7520616c7265616479206f776e2074686973204e46540000000000000000604482015260640161043f565b60095460028201546004808401546040516323b872dd60e01b815233928101929092526001600160a01b03928316602483015260448201529116906323b872dd906064016020604051808303816000875af11580156106b1573d6000803e3d6000fd5b505050506040513d601f19601f820116820180604052508101906106d59190611cdd565b6107125760405162461bcd60e51b815260206004820152600e60248201526d14185e5b595b9d0819985a5b195960921b604482015260640161043f565b60028101546001600160a01b031661072b813385611128565b6002820180546001600160a01b0319163390811790915560058301805460ff191690556040518491906001600160a01b038416907fddf252ad1be2c89b69c2b068fc378daa952ba7f163c4a11628f55a4df523b3ef90600090a4505050565b60006107946111d8565b6107a2600880546001019055565b60006107ad60085490565b6009549091506001600160a01b03166323b872dd336107d46007546001600160a01b031690565b6040516001600160e01b031960e085901b1681526001600160a01b03928316600482015291166024820152604481018690526064016020604051808303816000875af1158015610828573d6000803e3d6000fd5b505050506040513d601f19601f8201168201806040525081019061084c9190611cdd565b6108895760405162461bcd60e51b815260206004820152600e60248201526d14185e5b595b9d0819985a5b195960921b604482015260640161043f565b6108933382611205565b61089d818561126a565b6040805160c0810182528281523360208083018281528385019283526060840189815260808501899052600160a086018190526000888152600a9094529590922084518155905194810180546001600160a01b03199081166001600160a01b0397881617909155925160028201805490941695169490941790915551909190600382019061092b9082611d48565b506080820151600482015560a0909101516005909101805460ff1916911515919091179055905092915050565b600061034982610fe9565b60006001600160a01b03821661098f576040516322718ad960e21b81526000600482015260240161043f565b506001600160a01b031660009081526003602052604090205490565b6109b36111d8565b6109bd60006112ba565b565b60606001805461035e90611ca3565b61041533838361130c565b6109e4848484610419565b6104a3848484846113ab565b60606109fb82610fe9565b5060008281526006602052604081208054610a1590611ca3565b80601f0160208091040260200160405190810160405280929190818152602001828054610a4190611ca3565b8015610a8e5780601f10610a6357610100808354040283529160200191610a8e565b820191906000526020600020905b815481529060010190602001808311610a7157829003601f168201915b505050505090506000610aac60408051602081019091526000815290565b90508051600003610abe575092915050565b815115610af0578082604051602001610ad8929190611e08565b60405160208183030381529060405292505050919050565b610af9846114d4565b949350505050565b60606000610b0e60085490565b905060008167ffffffffffffffff811115610b2b57610b2b6119fe565b604051908082528060200260200182016040528015610b8a57816020015b6040805160c081018252600080825260208083018290529282018190526060808301526080820181905260a08201528252600019909201910181610b495790505b50905060005b82811015610cd6576000600a81610ba8846001611e4d565b81526020808201929092526040908101600020815160c0810183528154815260018201546001600160a01b03908116948201949094526002820154909316918301919091526003810180549193508391606084019190610c0790611ca3565b80601f0160208091040260200160405190810160405280929190818152602001828054610c3390611ca3565b8015610c805780601f10610c5557610100808354040283529160200191610c80565b820191906000526020600020905b815481529060010190602001808311610c6357829003601f168201915b50505091835250506004820154602082015260059091015460ff1615156040909101528351849084908110610cb757610cb7611e60565b6020026020010181905250508080610cce90611e76565b915050610b90565b5092915050565b60606000610cea60085490565b9050600060015b828111610d3c576000818152600a60205260409020600201546001600160a01b03808716911603610d2a5781610d2681611e76565b9250505b80610d3481611e76565b915050610cf1565b5060008167ffffffffffffffff811115610d5857610d586119fe565b604051908082528060200260200182016040528015610db757816020015b6040805160c081018252600080825260208083018290529282018190526060808301526080820181905260a08201528252600019909201910181610d765790505b509050600060015b848111610f22576000818152600a60205260409020600201546001600160a01b03808916911603610f10576000818152600a6020908152604091829020825160c0810184528154815260018201546001600160a01b0390811693820193909352600282015490921692820192909252600382018054919291606084019190610e4690611ca3565b80601f0160208091040260200160405190810160405280929190818152602001828054610e7290611ca3565b8015610ebf5780601f10610e9457610100808354040283529160200191610ebf565b820191906000526020600020905b815481529060010190602001808311610ea257829003601f168201915b50505091835250506004820154602082015260059091015460ff1615156040909101528351849084908110610ef657610ef6611e60565b60200260200101819052508180610f0c90611e76565b9250505b80610f1a81611e76565b915050610dbf565b509095945050505050565b6001600160a01b03918216600090815260056020908152604080832093909416825291909152205460ff1690565b610f636111d8565b6001600160a01b038116610f8d57604051631e4fbdf760e01b81526000600482015260240161043f565b610f96816112ba565b50565b60006001600160e01b031982166380ac58cd60e01b1480610fca57506001600160e01b03198216635b5e139f60e01b145b8061034957506301ffc9a760e01b6001600160e01b0319831614610349565b6000818152600260205260408120546001600160a01b03168061034957604051637e27328960e01b81526004810184905260240161043f565b6105938383836001611549565b6000828152600260205260408120546001600160a01b039081169083161561105c5761105c81848661164f565b6001600160a01b0381161561109a57611079600085600080611549565b6001600160a01b038116600090815260036020526040902080546000190190555b6001600160a01b038516156110c9576001600160a01b0385166000908152600360205260409020805460010190555b60008481526002602052604080822080546001600160a01b0319166001600160a01b0389811691821790925591518793918516917fddf252ad1be2c89b69c2b068fc378daa952ba7f163c4a11628f55a4df523b3ef91a4949350505050565b6001600160a01b03821661115257604051633250574960e11b81526000600482015260240161043f565b60006111608383600061102f565b90506001600160a01b03811661118c57604051637e27328960e01b81526004810183905260240161043f565b836001600160a01b0316816001600160a01b0316146104a3576040516364283d7b60e01b81526001600160a01b038086166004830152602482018490528216604482015260640161043f565b6007546001600160a01b031633146109bd5760405163118cdaa760e01b815233600482015260240161043f565b6001600160a01b03821661122f57604051633250574960e11b81526000600482015260240161043f565b600061123d8383600061102f565b90506001600160a01b03811615610593576040516339e3563760e11b81526000600482015260240161043f565b60008281526006602052604090206112828282611d48565b506040518281527ff8e1a15aba9398e019f0b49df1a4fde98ee17ae345cb5f6b5e2c27f5033e8ce79060200160405180910390a15050565b600780546001600160a01b038381166001600160a01b0319831681179093556040519116919082907f8be0079c531659141344cd1fd0a4f28419497f9722a3daafe3b4186f6b6457e090600090a35050565b6001600160a01b03821661133e57604051630b61174360e31b81526001600160a01b038316600482015260240161043f565b6001600160a01b03838116600081815260056020908152604080832094871680845294825291829020805460ff191686151590811790915591519182527f17307eab39ab6107e8899845ad3d59bd9653f200f220920489ca2b5937696c31910160405180910390a3505050565b6001600160a01b0383163b156104a357604051630a85bd0160e11b81526001600160a01b0384169063150b7a02906113ed903390889087908790600401611e8f565b6020604051808303816000875af1925050508015611428575060408051601f3d908101601f1916820190925261142591810190611ecc565b60015b611491573d808015611456576040519150601f19603f3d011682016040523d82523d6000602084013e61145b565b606091505b50805160000361148957604051633250574960e11b81526001600160a01b038516600482015260240161043f565b805181602001fd5b6001600160e01b03198116630a85bd0160e11b146114cd57604051633250574960e11b81526001600160a01b038516600482015260240161043f565b5050505050565b60606114df82610fe9565b5060006114f760408051602081019091526000815290565b905060008151116115175760405180602001604052806000815250611542565b80611521846116b3565b604051602001611532929190611e08565b6040516020818303038152906040525b9392505050565b808061155d57506001600160a01b03821615155b1561161f57600061156d84610fe9565b90506001600160a01b038316158015906115995750826001600160a01b0316816001600160a01b031614155b80156115ac57506115aa8184610f2d565b155b156115d55760405163a9fbf51f60e01b81526001600160a01b038416600482015260240161043f565b811561161d5783856001600160a01b0316826001600160a01b03167f8c5be1e5ebec7d5bd14f71427d1e84f3dd0314c0f7b2291e5b200ac8c7c3b92560405160405180910390a45b505b5050600090815260046020526040902080546001600160a01b0319166001600160a01b0392909216919091179055565b61165a838383611746565b610593576001600160a01b03831661168857604051637e27328960e01b81526004810182905260240161043f565b60405163177e802f60e01b81526001600160a01b03831660048201526024810182905260440161043f565b606060006116c0836117a9565b600101905060008167ffffffffffffffff8111156116e0576116e06119fe565b6040519080825280601f01601f19166020018201604052801561170a576020820181803683370190505b5090508181016020015b600019016f181899199a1a9b1b9c1cb0b131b232b360811b600a86061a8153600a850494508461171457509392505050565b60006001600160a01b03831615801590610af95750826001600160a01b0316846001600160a01b0316148061178057506117808484610f2d565b80610af95750506000908152600460205260409020546001600160a01b03908116911614919050565b60008072184f03e93ff9f4daa797ed6e38ed64bf6a1f0160401b83106117e85772184f03e93ff9f4daa797ed6e38ed64bf6a1f0160401b830492506040015b6d04ee2d6d415b85acef81000000008310611814576d04ee2d6d415b85acef8100000000830492506020015b662386f26fc10000831061183257662386f26fc10000830492506010015b6305f5e100831061184a576305f5e100830492506008015b612710831061185e57612710830492506004015b60648310611870576064830492506002015b600a83106103495760010192915050565b6001600160e01b031981168114610f9657600080fd5b6000602082840312156118a957600080fd5b813561154281611881565b60005b838110156118cf5781810151838201526020016118b7565b50506000910152565b600081518084526118f08160208601602086016118b4565b601f01601f19169290920160200192915050565b60208152600061154260208301846118d8565b60006020828403121561192957600080fd5b5035919050565b80356001600160a01b038116811461194757600080fd5b919050565b6000806040838503121561195f57600080fd5b61196883611930565b946020939093013593505050565b60008060006060848603121561198b57600080fd5b61199484611930565b92506119a260208501611930565b9150604084013590509250925092565b8681526001600160a01b0386811660208301528516604082015260c0606082018190526000906119e4908301866118d8565b60808301949094525090151560a090910152949350505050565b634e487b7160e01b600052604160045260246000fd5b600067ffffffffffffffff80841115611a2f57611a2f6119fe565b604051601f8501601f19908116603f01168101908282118183101715611a5757611a576119fe565b81604052809350858152868686011115611a7057600080fd5b858560208301376000602087830101525050509392505050565b60008060408385031215611a9d57600080fd5b823567ffffffffffffffff811115611ab457600080fd5b8301601f81018513611ac557600080fd5b611ad485823560208401611a14565b95602094909401359450505050565b600060208284031215611af557600080fd5b61154282611930565b8015158114610f9657600080fd5b60008060408385031215611b1f57600080fd5b611b2883611930565b91506020830135611b3881611afe565b809150509250929050565b60008060008060808587031215611b5957600080fd5b611b6285611930565b9350611b7060208601611930565b925060408501359150606085013567ffffffffffffffff811115611b9357600080fd5b8501601f81018713611ba457600080fd5b611bb387823560208401611a14565b91505092959194509250565b60006020808301818452808551808352604092508286019150828160051b87010184880160005b83811015611c6257888303603f19018552815180518452878101516001600160a01b039081168986015287820151168785015260608082015160c08287018190529190611c35838801826118d8565b6080858101519089015260a094850151151594909701939093525050509386019390860190600101611be6565b509098975050505050505050565b60008060408385031215611c8357600080fd5b611c8c83611930565b9150611c9a60208401611930565b90509250929050565b600181811c90821680611cb757607f821691505b602082108103611cd757634e487b7160e01b600052602260045260246000fd5b50919050565b600060208284031215611cef57600080fd5b815161154281611afe565b601f82111561059357600081815260208120601f850160051c81016020861015611d215750805b601f850160051c820191505b81811015611d4057828155600101611d2d565b505050505050565b815167ffffffffffffffff811115611d6257611d626119fe565b611d7681611d708454611ca3565b84611cfa565b602080601f831160018114611dab5760008415611d935750858301515b600019600386901b1c1916600185901b178555611d40565b600085815260208120601f198616915b82811015611dda57888601518255948401946001909101908401611dbb565b5085821015611df85787850151600019600388901b60f8161c191681555b5050505050600190811b01905550565b60008351611e1a8184602088016118b4565b835190830190611e2e8183602088016118b4565b01949350505050565b634e487b7160e01b600052601160045260246000fd5b8082018082111561034957610349611e37565b634e487b7160e01b600052603260045260246000fd5b600060018201611e8857611e88611e37565b5060010190565b6001600160a01b0385811682528416602082015260408101839052608060608201819052600090611ec2908301846118d8565b9695505050505050565b600060208284031215611ede57600080fd5b81516115428161188156fea2646970667358221220e82fdcb2d16d3878defd168bb0eefecbd3b3e2967c822ef6b921808bbe33a6bd64736f6c63430008140033",
  "linkReferences": {},
  "deployedLinkReferences": {}
}