{
  "_format": "hh-sol-artifact-1",
  "contractName": "NFTMarketplace",
  "sourceName": "src/NFTMarketplace.sol",
  "abi": [
    {
      "inputs": [],
      "stateMutability": "nonpayable",
      "type": "constructor"
    },
    {
      "anonymous": false,
      "inputs": [
        {
          "indexed": true,
          "internalType": "uint256",
          "name": "collectionId",
          "type": "uint256"
        },
        {
          "indexed": false,
          "internalType": "string",
          "name": "name",
          "type": "string"
        },
        {
          "indexed": true,
          "internalType": "address",
          "name": "owner",
          "type": "address"
        },
        {
          "indexed": false,
          "internalType": "address",
          "name": "contractAddress",
          "type": "address"
        }
      ],
      "name": "CollectionCreated",
      "type": "event"
    },
    {
      "inputs": [
        {
          "internalType": "uint256",
          "name": "",
          "type": "uint256"
        }
      ],
      "name": "collections",
      "outputs": [
        {
          "internalType": "uint256",
          "name": "id",
          "type": "uint256"
        },
        {
          "internalType": "string",
          "name": "name",
          "type": "string"
        },
        {
          "internalType": "address",
          "name": "owner",
          "type": "address"
        },
        {
          "internalType": "address",
          "name": "contractAddress",
          "type": "address"
        }
      ],
      "stateMutability": "view",
      "type": "function"
    },
    {
      "inputs": [
        {
          "internalType": "string",
          "name": "name",
          "type": "string"
        },
        {
          "internalType": "string",
          "name": "symbol",
          "type": "string"
        }
      ],
      "name": "createCollection",
      "outputs": [],
      "stateMutability": "nonpayable",
      "type": "function"
    },
    {
      "inputs": [],
      "name": "getAllCollections",
      "outputs": [
        {
          "components": [
            {
              "internalType": "uint256",
              "name": "id",
              "type": "uint256"
            },
            {
              "internalType": "string",
              "name": "name",
              "type": "string"
            },
            {
              "internalType": "address",
              "name": "owner",
              "type": "address"
            },
            {
              "internalType": "address",
              "name": "contractAddress",
              "type": "address"
            }
          ],
          "internalType": "struct NFTMarketplace.Collection[]",
          "name": "",
          "type": "tuple[]"
        }
      ],
      "stateMutability": "view",
      "type": "function"
    },
    {
      "inputs": [],
      "name": "owner",
      "outputs": [
        {
          "internalType": "address",
          "name": "",
          "type": "address"
        }
      ],
      "stateMutability": "view",
      "type": "function"
    }
  ],
  "bytecode": "0x608060405234801561001057600080fd5b50600180546001600160a01b03191633179055612adb806100326000396000f3fe60806040523480156200001157600080fd5b5060043610620000525760003560e01c8063176b9b7514620000575780636804a95814620000705780638da5cb5b1462000092578063fdbda0ec14620000bf575b600080fd5b6200006e6200006836600462000574565b620000e8565b005b6200007a62000212565b60405162000089919062000627565b60405180910390f35b600154620000a6906001600160a01b031681565b6040516001600160a01b03909116815260200162000089565b620000d6620000d0366004620006c2565b620003f5565b604051620000899493929190620006dc565b620000f7600080546001019055565b60008054905060008383336040516200011090620004bb565b6200011e9392919062000718565b604051809103906000f0801580156200013b573d6000803e3d6000fd5b5060408051608081018252848152602080820188815233838501526001600160a01b0385166060840152600087815260029092529290208151815591519293509160018201906200018d9082620007e9565b506040828101516002830180546001600160a01b03199081166001600160a01b03938416179091556060909401516003909301805490941692169190911790915551339083907fc911acf8b43f2846b6bbebdcd03c9170f742f974487b48ba05e5eac927ffbfd890620002049088908690620008b6565b60405180910390a350505050565b606060006200022060005490565b905060008167ffffffffffffffff811115620002405762000240620004c9565b604051908082528060200260200182016040528015620002b157816020015b6200029d6040518060800160405280600081526020016060815260200160006001600160a01b0316815260200160006001600160a01b031681525090565b8152602001906001900390816200025f5790505b50905060005b82811015620003ee576000600281620002d2846001620008f8565b8152602001908152602001600020905080604051806080016040529081600082015481526020016001820180546200030a906200075a565b80601f016020809104026020016040519081016040528092919081815260200182805462000338906200075a565b8015620003895780601f106200035d5761010080835404028352916020019162000389565b820191906000526020600020905b8154815290600101906020018083116200036b57829003601f168201915b505050918352505060028201546001600160a01b0390811660208301526003909201549091166040909101528351849084908110620003cc57620003cc62000914565b6020026020010181905250508080620003e5906200092a565b915050620002b7565b5092915050565b6002602052600090815260409020805460018201805491929162000419906200075a565b80601f016020809104026020016040519081016040528092919081815260200182805462000447906200075a565b8015620004985780601f106200046c5761010080835404028352916020019162000498565b820191906000526020600020905b8154815290600101906020018083116200047a57829003601f168201915b50505050600283015460039093015491926001600160a01b039081169216905084565b61215f806200094783390190565b634e487b7160e01b600052604160045260246000fd5b600082601f830112620004f157600080fd5b813567ffffffffffffffff808211156200050f576200050f620004c9565b604051601f8301601f19908116603f011681019082821181831017156200053a576200053a620004c9565b816040528381528660208588010111156200055457600080fd5b836020870160208301376000602085830101528094505050505092915050565b600080604083850312156200058857600080fd5b823567ffffffffffffffff80821115620005a157600080fd5b620005af86838701620004df565b93506020850135915080821115620005c657600080fd5b50620005d585828601620004df565b9150509250929050565b6000815180845260005b818110156200060757602081850181015186830182015201620005e9565b506000602082860101526020601f19601f83011685010191505092915050565b60006020808301818452808551808352604092508286019150828160051b87010184880160005b83811015620006b457603f19898403018552815160808151855288820151818a8701526200067f82870182620005df565b838a01516001600160a01b03908116888c0152606094850151169390960192909252505093860193908601906001016200064e565b509098975050505050505050565b600060208284031215620006d557600080fd5b5035919050565b848152608060208201526000620006f76080830186620005df565b6001600160a01b039485166040840152929093166060909101529392505050565b6060815260006200072d6060830186620005df565b8281036020840152620007418186620005df565b91505060018060a01b0383166040830152949350505050565b600181811c908216806200076f57607f821691505b6020821081036200079057634e487b7160e01b600052602260045260246000fd5b50919050565b601f821115620007e457600081815260208120601f850160051c81016020861015620007bf5750805b601f850160051c820191505b81811015620007e057828155600101620007cb565b5050505b505050565b815167ffffffffffffffff811115620008065762000806620004c9565b6200081e816200081784546200075a565b8462000796565b602080601f8311600181146200085657600084156200083d5750858301515b600019600386901b1c1916600185901b178555620007e0565b600085815260208120601f198616915b82811015620008875788860151825594840194600190910190840162000866565b5085821015620008a65787850151600019600388901b60f8161c191681555b5050505050600190811b01905550565b604081526000620008cb6040830185620005df565b905060018060a01b03831660208301529392505050565b634e487b7160e01b600052601160045260246000fd5b808201808211156200090e576200090e620008e2565b92915050565b634e487b7160e01b600052603260045260246000fd5b6000600182016200093f576200093f620008e2565b506001019056fe60806040523480156200001157600080fd5b506040516200215f3803806200215f8339810160408190526200003491620001b2565b8083836000620000458382620002ce565b506001620000548282620002ce565b5050506001600160a01b0381166200008657604051631e4fbdf760e01b81526000600482015260240160405180910390fd5b62000091816200009b565b505050506200039a565b600780546001600160a01b038381166001600160a01b0319831681179093556040519116919082907f8be0079c531659141344cd1fd0a4f28419497f9722a3daafe3b4186f6b6457e090600090a35050565b634e487b7160e01b600052604160045260246000fd5b600082601f8301126200011557600080fd5b81516001600160401b0380821115620001325762000132620000ed565b604051601f8301601f19908116603f011681019082821181831017156200015d576200015d620000ed565b816040528381526020925086838588010111156200017a57600080fd5b600091505b838210156200019e57858201830151818301840152908201906200017f565b600093810190920192909252949350505050565b600080600060608486031215620001c857600080fd5b83516001600160401b0380821115620001e057600080fd5b620001ee8783880162000103565b945060208601519150808211156200020557600080fd5b50620002148682870162000103565b604086015190935090506001600160a01b03811681146200023457600080fd5b809150509250925092565b600181811c908216806200025457607f821691505b6020821081036200027557634e487b7160e01b600052602260045260246000fd5b50919050565b601f821115620002c957600081815260208120601f850160051c81016020861015620002a45750805b601f850160051c820191505b81811015620002c557828155600101620002b0565b5050505b505050565b81516001600160401b03811115620002ea57620002ea620000ed565b6200030281620002fb84546200023f565b846200027b565b602080601f8311600181146200033a5760008415620003215750858301515b600019600386901b1c1916600185901b178555620002c5565b600085815260208120601f198616915b828110156200036b578886015182559484019460019091019084016200034a565b50858210156200038a5787850151600019600388901b60f8161c191681555b5050505050600190811b01905550565b611db580620003aa6000396000f3fe60806040526004361061012a5760003560e01c806370a08231116100ab578063a22cb4651161006f578063a22cb4651461033b578063b88d4fde1461035b578063c87b56dd1461037b578063e0391b091461039b578063e985e9c5146103bd578063f2fde38b146103dd57600080fd5b806370a08231146102b3578063715018a6146102d35780638da5cb5b146102e857806394383f141461030657806395d89b411461032657600080fd5b8063265aa621116100f2578063265aa62114610200578063268291551461023257806342842e0e1461026057806351ed8288146102805780636352211e1461029357600080fd5b806301ffc9a71461012f57806306fdde0314610164578063081812fc14610186578063095ea7b3146101be57806323b872dd146101e0575b600080fd5b34801561013b57600080fd5b5061014f61014a366004611731565b6103fd565b60405190151581526020015b60405180910390f35b34801561017057600080fd5b50610179610428565b60405161015b919061179e565b34801561019257600080fd5b506101a66101a13660046117b1565b6104ba565b6040516001600160a01b03909116815260200161015b565b3480156101ca57600080fd5b506101de6101d93660046117e6565b6104e3565b005b3480156101ec57600080fd5b506101de6101fb366004611810565b6104f2565b34801561020c57600080fd5b5061022061021b3660046117b1565b610582565b60405161015b9695949392919061184c565b34801561023e57600080fd5b5061025261024d366004611924565b610651565b60405190815260200161015b565b34801561026c57600080fd5b506101de61027b366004611810565b610745565b6101de61028e3660046117b1565b610765565b34801561029f57600080fd5b506101a66102ae3660046117b1565b6109c2565b3480156102bf57600080fd5b506102526102ce36600461197d565b6109cd565b3480156102df57600080fd5b506101de610a15565b3480156102f457600080fd5b506007546001600160a01b03166101a6565b34801561031257600080fd5b506101de610321366004611998565b610a29565b34801561033257600080fd5b50610179610aa9565b34801561034757600080fd5b506101de6103563660046119ba565b610ab8565b34801561036757600080fd5b506101de6103763660046119f6565b610ac3565b34801561038757600080fd5b506101796103963660046117b1565b610ada565b3480156103a757600080fd5b506103b0610beb565b60405161015b9190611a72565b3480156103c957600080fd5b5061014f6103d8366004611b23565b610dc7565b3480156103e957600080fd5b506101de6103f836600461197d565b610df5565b60006001600160e01b03198216632483248360e11b1480610422575061042282610e33565b92915050565b60606000805461043790611b56565b80601f016020809104026020016040519081016040528092919081815260200182805461046390611b56565b80156104b05780601f10610485576101008083540402835291602001916104b0565b820191906000526020600020905b81548152906001019060200180831161049357829003601f168201915b5050505050905090565b60006104c582610e83565b506000828152600460205260409020546001600160a01b0316610422565b6104ee828233610ebc565b5050565b6001600160a01b03821661052157604051633250574960e11b8152600060048201526024015b60405180910390fd5b600061052e838333610ec9565b9050836001600160a01b0316816001600160a01b03161461057c576040516364283d7b60e01b81526001600160a01b0380861660048301526024820184905282166044820152606401610518565b50505050565b600960205260009081526040902080546001820154600283015460038401805493946001600160a01b039384169493909216926105be90611b56565b80601f01602080910402602001604051908101604052809291908181526020018280546105ea90611b56565b80156106375780601f1061060c57610100808354040283529160200191610637565b820191906000526020600020905b81548152906001019060200180831161061a57829003601f168201915b50505050600483015460059093015491929160ff16905086565b600061065b610fc2565b610669600880546001019055565b600061067460085490565b90506106803382610fef565b61068a8185611054565b6040805160c0810182528281523360208083018281528385019283526060840189815260808501899052600160a08601819052600088815260099094529590922084518155905194810180546001600160a01b03199081166001600160a01b039788161790915592516002820180549094169516949094179091555190919060038201906107189082611bde565b506080820151600482015560a0909101516005909101805460ff1916911515919091179055905092915050565b61076083838360405180602001604052806000815250610ac3565b505050565b6000818152600960209081526040808320815160c0810183528154815260018201546001600160a01b03908116948201949094526002820154909316918301919091526003810180546060840191906107bd90611b56565b80601f01602080910402602001604051908101604052809291908181526020018280546107e990611b56565b80156108365780601f1061080b57610100808354040283529160200191610836565b820191906000526020600020905b81548152906001019060200180831161081957829003601f168201915b50505091835250506004820154602082015260059091015460ff16151560409091015260808101519091503410156108a75760405162461bcd60e51b8152602060048201526014602482015273125b9cdd59999a58da595b9d081c185e5b595b9d60621b6044820152606401610518565b8060a001516108eb5760405162461bcd60e51b815260206004820152601060248201526f4e4654206e6f7420666f722073616c6560801b6044820152606401610518565b60408181018051338252600060a085018190528581526009602090815293902084518155928401516001840180546001600160a01b03199081166001600160a01b03938416179091559251600285018054909416911617909155606083015190918391600382019061095d9082611bde565b506080820151600482015560a0909101516005909101805460ff191691151591909117905561098d8133856110a4565b6040516001600160a01b038216903480156108fc02916000818181858888f1935050505015801561057c573d6000803e3d6000fd5b600061042282610e83565b60006001600160a01b0382166109f9576040516322718ad960e21b815260006004820152602401610518565b506001600160a01b031660009081526003602052604090205490565b610a1d610fc2565b610a276000611154565b565b600082815260096020526040902060028101546001600160a01b03163314610a935760405162461bcd60e51b815260206004820152601760248201527f4f6e6c79206f776e65722063616e206c697374204e46540000000000000000006044820152606401610518565b60058101805460ff191660011790556004015550565b60606001805461043790611b56565b6104ee3383836111a6565b610ace8484846104f2565b61057c84848484611245565b6060610ae582610e83565b5060008281526006602052604081208054610aff90611b56565b80601f0160208091040260200160405190810160405280929190818152602001828054610b2b90611b56565b8015610b785780601f10610b4d57610100808354040283529160200191610b78565b820191906000526020600020905b815481529060010190602001808311610b5b57829003601f168201915b505050505090506000610b9660408051602081019091526000815290565b90508051600003610ba8575092915050565b815115610bda578082604051602001610bc2929190611c9e565b60405160208183030381529060405292505050919050565b610be38461136e565b949350505050565b60606000610bf860085490565b905060008167ffffffffffffffff811115610c1557610c15611898565b604051908082528060200260200182016040528015610c7457816020015b6040805160c081018252600080825260208083018290529282018190526060808301526080820181905260a08201528252600019909201910181610c335790505b50905060005b82811015610dc0576000600981610c92846001611ce3565b81526020808201929092526040908101600020815160c0810183528154815260018201546001600160a01b03908116948201949094526002820154909316918301919091526003810180549193508391606084019190610cf190611b56565b80601f0160208091040260200160405190810160405280929190818152602001828054610d1d90611b56565b8015610d6a5780601f10610d3f57610100808354040283529160200191610d6a565b820191906000526020600020905b815481529060010190602001808311610d4d57829003601f168201915b50505091835250506004820154602082015260059091015460ff1615156040909101528351849084908110610da157610da1611cf6565b6020026020010181905250508080610db890611d0c565b915050610c7a565b5092915050565b6001600160a01b03918216600090815260056020908152604080832093909416825291909152205460ff1690565b610dfd610fc2565b6001600160a01b038116610e2757604051631e4fbdf760e01b815260006004820152602401610518565b610e3081611154565b50565b60006001600160e01b031982166380ac58cd60e01b1480610e6457506001600160e01b03198216635b5e139f60e01b145b8061042257506301ffc9a760e01b6001600160e01b0319831614610422565b6000818152600260205260408120546001600160a01b03168061042257604051637e27328960e01b815260048101849052602401610518565b61076083838360016113e3565b6000828152600260205260408120546001600160a01b0390811690831615610ef657610ef68184866114e9565b6001600160a01b03811615610f3457610f136000856000806113e3565b6001600160a01b038116600090815260036020526040902080546000190190555b6001600160a01b03851615610f63576001600160a01b0385166000908152600360205260409020805460010190555b60008481526002602052604080822080546001600160a01b0319166001600160a01b0389811691821790925591518793918516917fddf252ad1be2c89b69c2b068fc378daa952ba7f163c4a11628f55a4df523b3ef91a4949350505050565b6007546001600160a01b03163314610a275760405163118cdaa760e01b8152336004820152602401610518565b6001600160a01b03821661101957604051633250574960e11b815260006004820152602401610518565b600061102783836000610ec9565b90506001600160a01b03811615610760576040516339e3563760e11b815260006004820152602401610518565b600082815260066020526040902061106c8282611bde565b506040518281527ff8e1a15aba9398e019f0b49df1a4fde98ee17ae345cb5f6b5e2c27f5033e8ce79060200160405180910390a15050565b6001600160a01b0382166110ce57604051633250574960e11b815260006004820152602401610518565b60006110dc83836000610ec9565b90506001600160a01b03811661110857604051637e27328960e01b815260048101839052602401610518565b836001600160a01b0316816001600160a01b03161461057c576040516364283d7b60e01b81526001600160a01b0380861660048301526024820184905282166044820152606401610518565b600780546001600160a01b038381166001600160a01b0319831681179093556040519116919082907f8be0079c531659141344cd1fd0a4f28419497f9722a3daafe3b4186f6b6457e090600090a35050565b6001600160a01b0382166111d857604051630b61174360e31b81526001600160a01b0383166004820152602401610518565b6001600160a01b03838116600081815260056020908152604080832094871680845294825291829020805460ff191686151590811790915591519182527f17307eab39ab6107e8899845ad3d59bd9653f200f220920489ca2b5937696c31910160405180910390a3505050565b6001600160a01b0383163b1561057c57604051630a85bd0160e11b81526001600160a01b0384169063150b7a0290611287903390889087908790600401611d25565b6020604051808303816000875af19250505080156112c2575060408051601f3d908101601f191682019092526112bf91810190611d62565b60015b61132b573d8080156112f0576040519150601f19603f3d011682016040523d82523d6000602084013e6112f5565b606091505b50805160000361132357604051633250574960e11b81526001600160a01b0385166004820152602401610518565b805181602001fd5b6001600160e01b03198116630a85bd0160e11b1461136757604051633250574960e11b81526001600160a01b0385166004820152602401610518565b5050505050565b606061137982610e83565b50600061139160408051602081019091526000815290565b905060008151116113b157604051806020016040528060008152506113dc565b806113bb8461154d565b6040516020016113cc929190611c9e565b6040516020818303038152906040525b9392505050565b80806113f757506001600160a01b03821615155b156114b957600061140784610e83565b90506001600160a01b038316158015906114335750826001600160a01b0316816001600160a01b031614155b801561144657506114448184610dc7565b155b1561146f5760405163a9fbf51f60e01b81526001600160a01b0384166004820152602401610518565b81156114b75783856001600160a01b0316826001600160a01b03167f8c5be1e5ebec7d5bd14f71427d1e84f3dd0314c0f7b2291e5b200ac8c7c3b92560405160405180910390a45b505b5050600090815260046020526040902080546001600160a01b0319166001600160a01b0392909216919091179055565b6114f48383836115e0565b610760576001600160a01b03831661152257604051637e27328960e01b815260048101829052602401610518565b60405163177e802f60e01b81526001600160a01b038316600482015260248101829052604401610518565b6060600061155a83611643565b600101905060008167ffffffffffffffff81111561157a5761157a611898565b6040519080825280601f01601f1916602001820160405280156115a4576020820181803683370190505b5090508181016020015b600019016f181899199a1a9b1b9c1cb0b131b232b360811b600a86061a8153600a85049450846115ae57509392505050565b60006001600160a01b03831615801590610be35750826001600160a01b0316846001600160a01b0316148061161a575061161a8484610dc7565b80610be35750506000908152600460205260409020546001600160a01b03908116911614919050565b60008072184f03e93ff9f4daa797ed6e38ed64bf6a1f0160401b83106116825772184f03e93ff9f4daa797ed6e38ed64bf6a1f0160401b830492506040015b6d04ee2d6d415b85acef810000000083106116ae576d04ee2d6d415b85acef8100000000830492506020015b662386f26fc1000083106116cc57662386f26fc10000830492506010015b6305f5e10083106116e4576305f5e100830492506008015b61271083106116f857612710830492506004015b6064831061170a576064830492506002015b600a83106104225760010192915050565b6001600160e01b031981168114610e3057600080fd5b60006020828403121561174357600080fd5b81356113dc8161171b565b60005b83811015611769578181015183820152602001611751565b50506000910152565b6000815180845261178a81602086016020860161174e565b601f01601f19169290920160200192915050565b6020815260006113dc6020830184611772565b6000602082840312156117c357600080fd5b5035919050565b80356001600160a01b03811681146117e157600080fd5b919050565b600080604083850312156117f957600080fd5b611802836117ca565b946020939093013593505050565b60008060006060848603121561182557600080fd5b61182e846117ca565b925061183c602085016117ca565b9150604084013590509250925092565b8681526001600160a01b0386811660208301528516604082015260c06060820181905260009061187e90830186611772565b60808301949094525090151560a090910152949350505050565b634e487b7160e01b600052604160045260246000fd5b600067ffffffffffffffff808411156118c9576118c9611898565b604051601f8501601f19908116603f011681019082821181831017156118f1576118f1611898565b8160405280935085815286868601111561190a57600080fd5b858560208301376000602087830101525050509392505050565b6000806040838503121561193757600080fd5b823567ffffffffffffffff81111561194e57600080fd5b8301601f8101851361195f57600080fd5b61196e858235602084016118ae565b95602094909401359450505050565b60006020828403121561198f57600080fd5b6113dc826117ca565b600080604083850312156119ab57600080fd5b50508035926020909101359150565b600080604083850312156119cd57600080fd5b6119d6836117ca565b9150602083013580151581146119eb57600080fd5b809150509250929050565b60008060008060808587031215611a0c57600080fd5b611a15856117ca565b9350611a23602086016117ca565b925060408501359150606085013567ffffffffffffffff811115611a4657600080fd5b8501601f81018713611a5757600080fd5b611a66878235602084016118ae565b91505092959194509250565b60006020808301818452808551808352604092508286019150828160051b87010184880160005b83811015611b1557888303603f19018552815180518452878101516001600160a01b039081168986015287820151168785015260608082015160c08287018190529190611ae883880182611772565b6080858101519089015260a094850151151594909701939093525050509386019390860190600101611a99565b509098975050505050505050565b60008060408385031215611b3657600080fd5b611b3f836117ca565b9150611b4d602084016117ca565b90509250929050565b600181811c90821680611b6a57607f821691505b602082108103611b8a57634e487b7160e01b600052602260045260246000fd5b50919050565b601f82111561076057600081815260208120601f850160051c81016020861015611bb75750805b601f850160051c820191505b81811015611bd657828155600101611bc3565b505050505050565b815167ffffffffffffffff811115611bf857611bf8611898565b611c0c81611c068454611b56565b84611b90565b602080601f831160018114611c415760008415611c295750858301515b600019600386901b1c1916600185901b178555611bd6565b600085815260208120601f198616915b82811015611c7057888601518255948401946001909101908401611c51565b5085821015611c8e5787850151600019600388901b60f8161c191681555b5050505050600190811b01905550565b60008351611cb081846020880161174e565b835190830190611cc481836020880161174e565b01949350505050565b634e487b7160e01b600052601160045260246000fd5b8082018082111561042257610422611ccd565b634e487b7160e01b600052603260045260246000fd5b600060018201611d1e57611d1e611ccd565b5060010190565b6001600160a01b0385811682528416602082015260408101839052608060608201819052600090611d5890830184611772565b9695505050505050565b600060208284031215611d7457600080fd5b81516113dc8161171b56fea264697066735822122050c4c59014ce1cfaaa1bad00beb7c9b397e44f6762127cfcf1cbaeeaf1788add64736f6c63430008140033a2646970667358221220855320515e269f8fb85aa1cc6a0a33d9ade599c984e9850e7381b090ab5728a564736f6c63430008140033",
  "linkReferences": {},
  "deployedLinkReferences": {}
}