{
  "_format": "hh-sol-artifact-1",
  "contractName": "Counter",
  "sourceName": "src/Counter.sol",
  "abi": [
    {
      "inputs": [],
      "name": "count",
      "outputs": [
        {
          "internalType": "uint256",
          "name": "",
          "type": "uint256"
        }
      ],
      "stateMutability": "view",
      "type": "function"
    },
    {
      "inputs": [],
      "name": "increment",
      "outputs": [],
      "stateMutability": "nonpayable",
      "type": "function"
    }
  ],
  "bytecode": "0x608060405234801561001057600080fd5b5060cc8061001f6000396000f3fe6080604052348015600f57600080fd5b506004361060325760003560e01c806306661abd146037578063d09de08a146051575b600080fd5b603f60005481565b60405190815260200160405180910390f35b60576059565b005b6001600080828254606991906070565b9091555050565b80820180821115609057634e487b7160e01b600052601160045260246000fd5b9291505056fea264697066735822122065147144b04fd260094fdaf84f9f8cc7cfb05d5111abf46cecde23694f035f7764736f6c63430008140033",
  "linkReferences": {},
  "deployedLinkReferences": {}
}