{
  "_format": "hh-sol-artifact-1",
  "contractName": "NFTCollectionContract",
  "sourceName": "src/NFTCollectionContract.sol",
  "abi": [
    {
      "inputs": [
        {
          "internalType": "string",
          "name": "name",
          "type": "string"
        },
        {
          "internalType": "string",
          "name": "symbol",
          "type": "string"
        },
        {
          "internalType": "address",
          "name": "collectionOwner",
          "type": "address"
        },
        {
          "internalType": "address",
          "name": "tokenAddress",
          "type": "address"
        }
      ],
      "stateMutability": "nonpayable",
      "type": "constructor"
    },
    {
      "inputs": [
        {
          "internalType": "address",
          "name": "sender",
          "type": "address"
        },
        {
          "internalType": "uint256",
          "name": "tokenId",
          "type": "uint256"
        },
        {
          "internalType": "address",
          "name": "owner",
          "type": "address"
        }
      ],
      "name": "ERC721IncorrectOwner",
      "type": "error"
    },
    {
      "inputs": [
        {
          "internalType": "address",
          "name": "operator",
          "type": "address"
        },
        {
          "internalType": "uint256",
          "name": "tokenId",
          "type": "uint256"
        }
      ],
      "name": "ERC721InsufficientApproval",
      "type": "error"
    },
    {
      "inputs": [
        {
          "internalType": "address",
          "name": "approver",
          "type": "address"
        }
      ],
      "name": "ERC721InvalidApprover",
      "type": "error"
    },
    {
      "inputs": [
        {
          "internalType": "address",
          "name": "operator",
          "type": "address"
        }
      ],
      "name": "ERC721InvalidOperator",
      "type": "error"
    },
    {
      "inputs": [
        {
          "internalType": "address",
          "name": "owner",
          "type": "address"
        }
      ],
      "name": "ERC721InvalidOwner",
      "type": "error"
    },
    {
      "inputs": [
        {
          "internalType": "address",
          "name": "receiver",
          "type": "address"
        }
      ],
      "name": "ERC721InvalidReceiver",
      "type": "error"
    },
    {
      "inputs": [
        {
          "internalType": "address",
          "name": "sender",
          "type": "address"
        }
      ],
      "name": "ERC721InvalidSender",
      "type": "error"
    },
    {
      "inputs": [
        {
          "internalType": "uint256",
          "name": "tokenId",
          "type": "uint256"
        }
      ],
      "name": "ERC721NonexistentToken",
      "type": "error"
    },
    {
      "inputs": [
        {
          "internalType": "address",
          "name": "owner",
          "type": "address"
        }
      ],
      "name": "OwnableInvalidOwner",
      "type": "error"
    },
    {
      "inputs": [
        {
          "internalType": "address",
          "name": "account",
          "type": "address"
        }
      ],
      "name": "OwnableUnauthorizedAccount",
      "type": "error"
    },
    {
      "anonymous": false,
      "inputs": [
        {
          "indexed": true,
          "internalType": "address",
          "name": "owner",
          "type": "address"
        },
        {
          "indexed": true,
          "internalType": "address",
          "name": "approved",
          "type": "address"
        },
        {
          "indexed": true,
          "internalType": "uint256",
          "name": "tokenId",
          "type": "uint256"
        }
      ],
      "name": "Approval",
      "type": "event"
    },
    {
      "anonymous": false,
      "inputs": [
        {
          "indexed": true,
          "internalType": "address",
          "name": "owner",
          "type": "address"
        },
        {
          "indexed": true,
          "internalType": "address",
          "name": "operator",
          "type": "address"
        },
        {
          "indexed": false,
          "internalType": "bool",
          "name": "approved",
          "type": "bool"
        }
      ],
      "name": "ApprovalForAll",
      "type": "event"
    },
    {
      "anonymous": false,
      "inputs": [
        {
          "indexed": false,
          "internalType": "uint256",
          "name": "_fromTokenId",
          "type": "uint256"
        },
        {
          "indexed": false,
          "internalType": "uint256",
          "name": "_toTokenId",
          "type": "uint256"
        }
      ],
      "name": "BatchMetadataUpdate",
      "type": "event"
    },
    {
      "anonymous": false,
      "inputs": [
        {
          "indexed": false,
          "internalType": "uint256",
          "name": "_tokenId",
          "type": "uint256"
        }
      ],
      "name": "MetadataUpdate",
      "type": "event"
    },
    {
      "anonymous": false,
      "inputs": [
        {
          "indexed": true,
          "internalType": "address",
          "name": "previousOwner",
          "type": "address"
        },
        {
          "indexed": true,
          "internalType": "address",
          "name": "newOwner",
          "type": "address"
        }
      ],
      "name": "OwnershipTransferred",
      "type": "event"
    },
    {
      "anonymous": false,
      "inputs": [
        {
          "indexed": true,
          "internalType": "address",
          "name": "from",
          "type": "address"
        },
        {
          "indexed": true,
          "internalType": "address",
          "name": "to",
          "type": "address"
        },
        {
          "indexed": true,
          "internalType": "uint256",
          "name": "tokenId",
          "type": "uint256"
        }
      ],
      "name": "Transfer",
      "type": "event"
    },
    {
      "inputs": [],
      "name": "acceptedToken",
      "outputs": [
        {
          "internalType": "contract IERC20",
          "name": "",
          "type": "address"
        }
      ],
      "stateMutability": "view",
      "type": "function"
    },
    {
      "inputs": [
        {
          "internalType": "address",
          "name": "to",
          "type": "address"
        },
        {
          "internalType": "uint256",
          "name": "tokenId",
          "type": "uint256"
        }
      ],
      "name": "approve",
      "outputs": [],
      "stateMutability": "nonpayable",
      "type": "function"
    },
    {
      "inputs": [
        {
          "internalType": "address",
          "name": "owner",
          "type": "address"
        }
      ],
      "name": "balanceOf",
      "outputs": [
        {
          "internalType": "uint256",
          "name": "",
          "type": "uint256"
        }
      ],
      "stateMutability": "view",
      "type": "function"
    },
    {
      "inputs": [
        {
          "internalType": "uint256",
          "name": "tokenId",
          "type": "uint256"
        }
      ],
      "name": "buyNFT",
      "outputs": [],
      "stateMutability": "payable",
      "type": "function"
    },
    {
      "inputs": [],
      "name": "getAllNFTs",
      "outputs": [
        {
          "components": [
            {
              "internalType": "uint256",
              "name": "id",
              "type": "uint256"
            },
            {
              "internalType": "address",
              "name": "creator",
              "type": "address"
            },
            {
              "internalType": "address",
              "name": "owner",
              "type": "address"
            },
            {
              "internalType": "string",
              "name": "uri",
              "type": "string"
            },
            {
              "internalType": "uint256",
              "name": "price",
              "type": "uint256"
            },
            {
              "internalType": "bool",
              "name": "isForSale",
              "type": "bool"
            }
          ],
          "internalType": "struct NFTCollectionContract.NFT[]",
          "name": "",
          "type": "tuple[]"
        }
      ],
      "stateMutability": "view",
      "type": "function"
    },
    {
      "inputs": [
        {
          "internalType": "uint256",
          "name": "tokenId",
          "type": "uint256"
        }
      ],
      "name": "getApproved",
      "outputs": [
        {
          "internalType": "address",
          "name": "",
          "type": "address"
        }
      ],
      "stateMutability": "view",
      "type": "function"
    },
    {
      "inputs": [
        {
          "internalType": "address",
          "name": "owner",
          "type": "address"
        }
      ],
      "name": "getNFTsByOwner",
      "outputs": [
        {
          "components": [
            {
              "internalType": "uint256",
              "name": "id",
              "type": "uint256"
            },
            {
              "internalType": "address",
              "name": "creator",
              "type": "address"
            },
            {
              "internalType": "address",
              "name": "owner",
              "type": "address"
            },
            {
              "internalType": "string",
              "name": "uri",
              "type": "string"
            },
            {
              "internalType": "uint256",
              "name": "price",
              "type": "uint256"
            },
            {
              "internalType": "bool",
              "name": "isForSale",
              "type": "bool"
            }
          ],
          "internalType": "struct NFTCollectionContract.NFT[]",
          "name": "",
          "type": "tuple[]"
        }
      ],
      "stateMutability": "view",
      "type": "function"
    },
    {
      "inputs": [
        {
          "internalType": "address",
          "name": "owner",
          "type": "address"
        },
        {
          "internalType": "address",
          "name": "operator",
          "type": "address"
        }
      ],
      "name": "isApprovedForAll",
      "outputs": [
        {
          "internalType": "bool",
          "name": "",
          "type": "bool"
        }
      ],
      "stateMutability": "view",
      "type": "function"
    },
    {
      "inputs": [
        {
          "internalType": "string",
          "name": "tokenURI",
          "type": "string"
        },
        {
          "internalType": "uint256",
          "name": "price",
          "type": "uint256"
        }
      ],
      "name": "mintNFT",
      "outputs": [
        {
          "internalType": "uint256",
          "name": "",
          "type": "uint256"
        }
      ],
      "stateMutability": "nonpayable",
      "type": "function"
    },
    {
      "inputs": [],
      "name": "name",
      "outputs": [
        {
          "internalType": "string",
          "name": "",
          "type": "string"
        }
      ],
      "stateMutability": "view",
      "type": "function"
    },
    {
      "inputs": [
        {
          "internalType": "uint256",
          "name": "",
          "type": "uint256"
        }
      ],
      "name": "nfts",
      "outputs": [
        {
          "internalType": "uint256",
          "name": "id",
          "type": "uint256"
        },
        {
          "internalType": "address",
          "name": "creator",
          "type": "address"
        },
        {
          "internalType": "address",
          "name": "owner",
          "type": "address"
        },
        {
          "internalType": "string",
          "name": "uri",
          "type": "string"
        },
        {
          "internalType": "uint256",
          "name": "price",
          "type": "uint256"
        },
        {
          "internalType": "bool",
          "name": "isForSale",
          "type": "bool"
        }
      ],
      "stateMutability": "view",
      "type": "function"
    },
    {
      "inputs": [],
      "name": "owner",
      "outputs": [
        {
          "internalType": "address",
          "name": "",
          "type": "address"
        }
      ],
      "stateMutability": "view",
      "type": "function"
    },
    {
      "inputs": [
        {
          "internalType": "uint256",
          "name": "tokenId",
          "type": "uint256"
        }
      ],
      "name": "ownerOf",
      "outputs": [
        {
          "internalType": "address",
          "name": "",
          "type": "address"
        }
      ],
      "stateMutability": "view",
      "type": "function"
    },
    {
      "inputs": [],
      "name": "renounceOwnership",
      "outputs": [],
      "stateMutability": "nonpayable",
      "type": "function"
    },
    {
      "inputs": [
        {
          "internalType": "address",
          "name": "from",
          "type": "address"
        },
        {
          "internalType": "address",
          "name": "to",
          "type": "address"
        },
        {
          "internalType": "uint256",
          "name": "tokenId",
          "type": "uint256"
        }
      ],
      "name": "safeTransferFrom",
      "outputs": [],
      "stateMutability": "nonpayable",
      "type": "function"
    },
    {
      "inputs": [
        {
          "internalType": "address",
          "name": "from",
          "type": "address"
        },
        {
          "internalType": "address",
          "name": "to",
          "type": "address"
        },
        {
          "internalType": "uint256",
          "name": "tokenId",
          "type": "uint256"
        },
        {
          "internalType": "bytes",
          "name": "data",
          "type": "bytes"
        }
      ],
      "name": "safeTransferFrom",
      "outputs": [],
      "stateMutability": "nonpayable",
      "type": "function"
    },
    {
      "inputs": [
        {
          "internalType": "address",
          "name": "operator",
          "type": "address"
        },
        {
          "internalType": "bool",
          "name": "approved",
          "type": "bool"
        }
      ],
      "name": "setApprovalForAll",
      "outputs": [],
      "stateMutability": "nonpayable",
      "type": "function"
    },
    {
      "inputs": [
        {
          "internalType": "bytes4",
          "name": "interfaceId",
          "type": "bytes4"
        }
      ],
      "name": "supportsInterface",
      "outputs": [
        {
          "internalType": "bool",
          "name": "",
          "type": "bool"
        }
      ],
      "stateMutability": "view",
      "type": "function"
    },
    {
      "inputs": [],
      "name": "symbol",
      "outputs": [
        {
          "internalType": "string",
          "name": "",
          "type": "string"
        }
      ],
      "stateMutability": "view",
      "type": "function"
    },
    {
      "inputs": [
        {
          "internalType": "uint256",
          "name": "tokenId",
          "type": "uint256"
        }
      ],
      "name": "tokenURI",
      "outputs": [
        {
          "internalType": "string",
          "name": "",
          "type": "string"
        }
      ],
      "stateMutability": "view",
      "type": "function"
    },
    {
      "inputs": [
        {
          "internalType": "address",
          "name": "from",
          "type": "address"
        },
        {
          "internalType": "address",
          "name": "to",
          "type": "address"
        },
        {
          "internalType": "uint256",
          "name": "tokenId",
          "type": "uint256"
        }
      ],
      "name": "transferFrom",
      "outputs": [],
      "stateMutability": "nonpayable",
      "type": "function"
    },
    {
      "inputs": [
        {
          "internalType": "address",
          "name": "newOwner",
          "type": "address"
        }
      ],
      "name": "transferOwnership",
      "outputs": [],
      "stateMutability": "nonpayable",
      "type": "function"
    }
  ],
  "bytecode": "0x60806040523480156200001157600080fd5b50604051620023cd380380620023cd8339810160408190526200003491620001f0565b81848460006200004583826200030e565b5060016200005482826200030e565b5050506001600160a01b0381166200008657604051631e4fbdf760e01b81526000600482015260240160405180910390fd5b6200009181620000bc565b50600980546001600160a01b0319166001600160a01b039290921691909117905550620003da915050565b600780546001600160a01b038381166001600160a01b0319831681179093556040519116919082907f8be0079c531659141344cd1fd0a4f28419497f9722a3daafe3b4186f6b6457e090600090a35050565b634e487b7160e01b600052604160045260246000fd5b600082601f8301126200013657600080fd5b81516001600160401b03808211156200015357620001536200010e565b604051601f8301601f19908116603f011681019082821181831017156200017e576200017e6200010e565b816040528381526020925086838588010111156200019b57600080fd5b600091505b83821015620001bf5785820183015181830184015290820190620001a0565b600093810190920192909252949350505050565b80516001600160a01b0381168114620001eb57600080fd5b919050565b600080600080608085870312156200020757600080fd5b84516001600160401b03808211156200021f57600080fd5b6200022d8883890162000124565b955060208701519150808211156200024457600080fd5b50620002538782880162000124565b9350506200026460408601620001d3565b91506200027460608601620001d3565b905092959194509250565b600181811c908216806200029457607f821691505b602082108103620002b557634e487b7160e01b600052602260045260246000fd5b50919050565b601f8211156200030957600081815260208120601f850160051c81016020861015620002e45750805b601f850160051c820191505b818110156200030557828155600101620002f0565b5050505b505050565b81516001600160401b038111156200032a576200032a6200010e565b62000342816200033b84546200027f565b84620002bb565b602080601f8311600181146200037a5760008415620003615750858301515b600019600386901b1c1916600185901b17855562000305565b600085815260208120601f198616915b82811015620003ab578886015182559484019460019091019084016200038a565b5085821015620003ca5787850151600019600388901b60f8161c191681555b5050505050600190811b01905550565b611fe380620003ea6000396000f3fe6080604052600436106101355760003560e01c806370a08231116100ab578063b88d4fde1161006f578063b88d4fde14610366578063c87b56dd14610386578063e0391b09146103a6578063e2afe8b3146103c8578063e985e9c5146103e8578063f2fde38b1461040857600080fd5b806370a08231146102de578063715018a6146102fe5780638da5cb5b1461031357806395d89b4114610331578063a22cb4651461034657600080fd5b8063265aa621116100fd578063265aa6211461020b57806342842e0e1461023d578063451c3d801461025d57806351ed82881461027d5780635afa3a72146102905780636352211e146102be57600080fd5b806301ffc9a71461013a57806306fdde031461016f578063081812fc14610191578063095ea7b3146101c957806323b872dd146101eb575b600080fd5b34801561014657600080fd5b5061015a61015536600461195b565b610428565b60405190151581526020015b60405180910390f35b34801561017b57600080fd5b50610184610453565b60405161016691906119c8565b34801561019d57600080fd5b506101b16101ac3660046119db565b6104e5565b6040516001600160a01b039091168152602001610166565b3480156101d557600080fd5b506101e96101e4366004611a10565b61050e565b005b3480156101f757600080fd5b506101e9610206366004611a3a565b61051d565b34801561021757600080fd5b5061022b6102263660046119db565b6105ad565b60405161016696959493929190611a76565b34801561024957600080fd5b506101e9610258366004611a3a565b61067c565b34801561026957600080fd5b506009546101b1906001600160a01b031681565b6101e961028b3660046119db565b61069c565b34801561029c57600080fd5b506102b06102ab366004611b4e565b610928565b604051908152602001610166565b3480156102ca57600080fd5b506101b16102d93660046119db565b610a1c565b3480156102ea57600080fd5b506102b06102f9366004611ba7565b610a27565b34801561030a57600080fd5b506101e9610a6f565b34801561031f57600080fd5b506007546001600160a01b03166101b1565b34801561033d57600080fd5b50610184610a83565b34801561035257600080fd5b506101e9610361366004611bd0565b610a92565b34801561037257600080fd5b506101e9610381366004611c07565b610a9d565b34801561039257600080fd5b506101846103a13660046119db565b610ab4565b3480156103b257600080fd5b506103bb610bc5565b6040516101669190611c83565b3480156103d457600080fd5b506103bb6103e3366004611ba7565b610da1565b3480156103f457600080fd5b5061015a610403366004611d34565b610ff1565b34801561041457600080fd5b506101e9610423366004611ba7565b61101f565b60006001600160e01b03198216632483248360e11b148061044d575061044d8261105d565b92915050565b60606000805461046290611d67565b80601f016020809104026020016040519081016040528092919081815260200182805461048e90611d67565b80156104db5780601f106104b0576101008083540402835291602001916104db565b820191906000526020600020905b8154815290600101906020018083116104be57829003601f168201915b5050505050905090565b60006104f0826110ad565b506000828152600460205260409020546001600160a01b031661044d565b6105198282336110e6565b5050565b6001600160a01b03821661054c57604051633250574960e11b8152600060048201526024015b60405180910390fd5b60006105598383336110f3565b9050836001600160a01b0316816001600160a01b0316146105a7576040516364283d7b60e01b81526001600160a01b0380861660048301526024820184905282166044820152606401610543565b50505050565b600a60205260009081526040902080546001820154600283015460038401805493946001600160a01b039384169493909216926105e990611d67565b80601f016020809104026020016040519081016040528092919081815260200182805461061590611d67565b80156106625780601f1061063757610100808354040283529160200191610662565b820191906000526020600020905b81548152906001019060200180831161064557829003601f168201915b50505050600483015460059093015491929160ff16905086565b61069783838360405180602001604052806000815250610a9d565b505050565b6000818152600a60205260409020600581015460ff166106f45760405162461bcd60e51b81526020600482015260136024820152724e4654206973206e6f7420666f722073616c6560681b6044820152606401610543565b6002810154336001600160a01b03909116036107525760405162461bcd60e51b815260206004820152601860248201527f596f7520616c7265616479206f776e2074686973204e465400000000000000006044820152606401610543565b34156107ec57806004015434146107ab5760405162461bcd60e51b815260206004820152601960248201527f496e636f72726563742045544820616d6f756e742073656e74000000000000006044820152606401610543565b60028101546040516001600160a01b03909116903480156108fc02916000818181858888f193505050501580156107e6573d6000803e3d6000fd5b506108b0565b60095460028201546004808401546040516323b872dd60e01b815233928101929092526001600160a01b03928316602483015260448201529116906323b872dd906064016020604051808303816000875af115801561084f573d6000803e3d6000fd5b505050506040513d601f19601f820116820180604052508101906108739190611da1565b6108b05760405162461bcd60e51b815260206004820152600e60248201526d14185e5b595b9d0819985a5b195960921b6044820152606401610543565b60028101546001600160a01b03166108c98133856111ec565b6002820180546001600160a01b0319163390811790915560058301805460ff191690556040518491906001600160a01b038416907fddf252ad1be2c89b69c2b068fc378daa952ba7f163c4a11628f55a4df523b3ef90600090a4505050565b600061093261129c565b610940600880546001019055565b600061094b60085490565b905061095733826112c9565b610961818561132e565b6040805160c0810182528281523360208083018281528385019283526060840189815260808501899052600160a086018190526000888152600a9094529590922084518155905194810180546001600160a01b03199081166001600160a01b039788161790915592516002820180549094169516949094179091555190919060038201906109ef9082611e0c565b506080820151600482015560a0909101516005909101805460ff1916911515919091179055905092915050565b600061044d826110ad565b60006001600160a01b038216610a53576040516322718ad960e21b815260006004820152602401610543565b506001600160a01b031660009081526003602052604090205490565b610a7761129c565b610a81600061137e565b565b60606001805461046290611d67565b6105193383836113d0565b610aa884848461051d565b6105a78484848461146f565b6060610abf826110ad565b5060008281526006602052604081208054610ad990611d67565b80601f0160208091040260200160405190810160405280929190818152602001828054610b0590611d67565b8015610b525780601f10610b2757610100808354040283529160200191610b52565b820191906000526020600020905b815481529060010190602001808311610b3557829003601f168201915b505050505090506000610b7060408051602081019091526000815290565b90508051600003610b82575092915050565b815115610bb4578082604051602001610b9c929190611ecc565b60405160208183030381529060405292505050919050565b610bbd84611598565b949350505050565b60606000610bd260085490565b905060008167ffffffffffffffff811115610bef57610bef611ac2565b604051908082528060200260200182016040528015610c4e57816020015b6040805160c081018252600080825260208083018290529282018190526060808301526080820181905260a08201528252600019909201910181610c0d5790505b50905060005b82811015610d9a576000600a81610c6c846001611f11565b81526020808201929092526040908101600020815160c0810183528154815260018201546001600160a01b03908116948201949094526002820154909316918301919091526003810180549193508391606084019190610ccb90611d67565b80601f0160208091040260200160405190810160405280929190818152602001828054610cf790611d67565b8015610d445780601f10610d1957610100808354040283529160200191610d44565b820191906000526020600020905b815481529060010190602001808311610d2757829003601f168201915b50505091835250506004820154602082015260059091015460ff1615156040909101528351849084908110610d7b57610d7b611f24565b6020026020010181905250508080610d9290611f3a565b915050610c54565b5092915050565b60606000610dae60085490565b9050600060015b828111610e00576000818152600a60205260409020600201546001600160a01b03808716911603610dee5781610dea81611f3a565b9250505b80610df881611f3a565b915050610db5565b5060008167ffffffffffffffff811115610e1c57610e1c611ac2565b604051908082528060200260200182016040528015610e7b57816020015b6040805160c081018252600080825260208083018290529282018190526060808301526080820181905260a08201528252600019909201910181610e3a5790505b509050600060015b848111610fe6576000818152600a60205260409020600201546001600160a01b03808916911603610fd4576000818152600a6020908152604091829020825160c0810184528154815260018201546001600160a01b0390811693820193909352600282015490921692820192909252600382018054919291606084019190610f0a90611d67565b80601f0160208091040260200160405190810160405280929190818152602001828054610f3690611d67565b8015610f835780601f10610f5857610100808354040283529160200191610f83565b820191906000526020600020905b815481529060010190602001808311610f6657829003601f168201915b50505091835250506004820154602082015260059091015460ff1615156040909101528351849084908110610fba57610fba611f24565b60200260200101819052508180610fd090611f3a565b9250505b80610fde81611f3a565b915050610e83565b509095945050505050565b6001600160a01b03918216600090815260056020908152604080832093909416825291909152205460ff1690565b61102761129c565b6001600160a01b03811661105157604051631e4fbdf760e01b815260006004820152602401610543565b61105a8161137e565b50565b60006001600160e01b031982166380ac58cd60e01b148061108e57506001600160e01b03198216635b5e139f60e01b145b8061044d57506301ffc9a760e01b6001600160e01b031983161461044d565b6000818152600260205260408120546001600160a01b03168061044d57604051637e27328960e01b815260048101849052602401610543565b610697838383600161160d565b6000828152600260205260408120546001600160a01b039081169083161561112057611120818486611713565b6001600160a01b0381161561115e5761113d60008560008061160d565b6001600160a01b038116600090815260036020526040902080546000190190555b6001600160a01b0385161561118d576001600160a01b0385166000908152600360205260409020805460010190555b60008481526002602052604080822080546001600160a01b0319166001600160a01b0389811691821790925591518793918516917fddf252ad1be2c89b69c2b068fc378daa952ba7f163c4a11628f55a4df523b3ef91a4949350505050565b6001600160a01b03821661121657604051633250574960e11b815260006004820152602401610543565b6000611224838360006110f3565b90506001600160a01b03811661125057604051637e27328960e01b815260048101839052602401610543565b836001600160a01b0316816001600160a01b0316146105a7576040516364283d7b60e01b81526001600160a01b0380861660048301526024820184905282166044820152606401610543565b6007546001600160a01b03163314610a815760405163118cdaa760e01b8152336004820152602401610543565b6001600160a01b0382166112f357604051633250574960e11b815260006004820152602401610543565b6000611301838360006110f3565b90506001600160a01b03811615610697576040516339e3563760e11b815260006004820152602401610543565b60008281526006602052604090206113468282611e0c565b506040518281527ff8e1a15aba9398e019f0b49df1a4fde98ee17ae345cb5f6b5e2c27f5033e8ce79060200160405180910390a15050565b600780546001600160a01b038381166001600160a01b0319831681179093556040519116919082907f8be0079c531659141344cd1fd0a4f28419497f9722a3daafe3b4186f6b6457e090600090a35050565b6001600160a01b03821661140257604051630b61174360e31b81526001600160a01b0383166004820152602401610543565b6001600160a01b03838116600081815260056020908152604080832094871680845294825291829020805460ff191686151590811790915591519182527f17307eab39ab6107e8899845ad3d59bd9653f200f220920489ca2b5937696c31910160405180910390a3505050565b6001600160a01b0383163b156105a757604051630a85bd0160e11b81526001600160a01b0384169063150b7a02906114b1903390889087908790600401611f53565b6020604051808303816000875af19250505080156114ec575060408051601f3d908101601f191682019092526114e991810190611f90565b60015b611555573d80801561151a576040519150601f19603f3d011682016040523d82523d6000602084013e61151f565b606091505b50805160000361154d57604051633250574960e11b81526001600160a01b0385166004820152602401610543565b805181602001fd5b6001600160e01b03198116630a85bd0160e11b1461159157604051633250574960e11b81526001600160a01b0385166004820152602401610543565b5050505050565b60606115a3826110ad565b5060006115bb60408051602081019091526000815290565b905060008151116115db5760405180602001604052806000815250611606565b806115e584611777565b6040516020016115f6929190611ecc565b6040516020818303038152906040525b9392505050565b808061162157506001600160a01b03821615155b156116e3576000611631846110ad565b90506001600160a01b0383161580159061165d5750826001600160a01b0316816001600160a01b031614155b8015611670575061166e8184610ff1565b155b156116995760405163a9fbf51f60e01b81526001600160a01b0384166004820152602401610543565b81156116e15783856001600160a01b0316826001600160a01b03167f8c5be1e5ebec7d5bd14f71427d1e84f3dd0314c0f7b2291e5b200ac8c7c3b92560405160405180910390a45b505b5050600090815260046020526040902080546001600160a01b0319166001600160a01b0392909216919091179055565b61171e83838361180a565b610697576001600160a01b03831661174c57604051637e27328960e01b815260048101829052602401610543565b60405163177e802f60e01b81526001600160a01b038316600482015260248101829052604401610543565b606060006117848361186d565b600101905060008167ffffffffffffffff8111156117a4576117a4611ac2565b6040519080825280601f01601f1916602001820160405280156117ce576020820181803683370190505b5090508181016020015b600019016f181899199a1a9b1b9c1cb0b131b232b360811b600a86061a8153600a85049450846117d857509392505050565b60006001600160a01b03831615801590610bbd5750826001600160a01b0316846001600160a01b0316148061184457506118448484610ff1565b80610bbd5750506000908152600460205260409020546001600160a01b03908116911614919050565b60008072184f03e93ff9f4daa797ed6e38ed64bf6a1f0160401b83106118ac5772184f03e93ff9f4daa797ed6e38ed64bf6a1f0160401b830492506040015b6d04ee2d6d415b85acef810000000083106118d8576d04ee2d6d415b85acef8100000000830492506020015b662386f26fc1000083106118f657662386f26fc10000830492506010015b6305f5e100831061190e576305f5e100830492506008015b612710831061192257612710830492506004015b60648310611934576064830492506002015b600a831061044d5760010192915050565b6001600160e01b03198116811461105a57600080fd5b60006020828403121561196d57600080fd5b813561160681611945565b60005b8381101561199357818101518382015260200161197b565b50506000910152565b600081518084526119b4816020860160208601611978565b601f01601f19169290920160200192915050565b602081526000611606602083018461199c565b6000602082840312156119ed57600080fd5b5035919050565b80356001600160a01b0381168114611a0b57600080fd5b919050565b60008060408385031215611a2357600080fd5b611a2c836119f4565b946020939093013593505050565b600080600060608486031215611a4f57600080fd5b611a58846119f4565b9250611a66602085016119f4565b9150604084013590509250925092565b8681526001600160a01b0386811660208301528516604082015260c060608201819052600090611aa89083018661199c565b60808301949094525090151560a090910152949350505050565b634e487b7160e01b600052604160045260246000fd5b600067ffffffffffffffff80841115611af357611af3611ac2565b604051601f8501601f19908116603f01168101908282118183101715611b1b57611b1b611ac2565b81604052809350858152868686011115611b3457600080fd5b858560208301376000602087830101525050509392505050565b60008060408385031215611b6157600080fd5b823567ffffffffffffffff811115611b7857600080fd5b8301601f81018513611b8957600080fd5b611b9885823560208401611ad8565b95602094909401359450505050565b600060208284031215611bb957600080fd5b611606826119f4565b801515811461105a57600080fd5b60008060408385031215611be357600080fd5b611bec836119f4565b91506020830135611bfc81611bc2565b809150509250929050565b60008060008060808587031215611c1d57600080fd5b611c26856119f4565b9350611c34602086016119f4565b925060408501359150606085013567ffffffffffffffff811115611c5757600080fd5b8501601f81018713611c6857600080fd5b611c7787823560208401611ad8565b91505092959194509250565b60006020808301818452808551808352604092508286019150828160051b87010184880160005b83811015611d2657888303603f19018552815180518452878101516001600160a01b039081168986015287820151168785015260608082015160c08287018190529190611cf98388018261199c565b6080858101519089015260a094850151151594909701939093525050509386019390860190600101611caa565b509098975050505050505050565b60008060408385031215611d4757600080fd5b611d50836119f4565b9150611d5e602084016119f4565b90509250929050565b600181811c90821680611d7b57607f821691505b602082108103611d9b57634e487b7160e01b600052602260045260246000fd5b50919050565b600060208284031215611db357600080fd5b815161160681611bc2565b601f82111561069757600081815260208120601f850160051c81016020861015611de55750805b601f850160051c820191505b81811015611e0457828155600101611df1565b505050505050565b815167ffffffffffffffff811115611e2657611e26611ac2565b611e3a81611e348454611d67565b84611dbe565b602080601f831160018114611e6f5760008415611e575750858301515b600019600386901b1c1916600185901b178555611e04565b600085815260208120601f198616915b82811015611e9e57888601518255948401946001909101908401611e7f565b5085821015611ebc5787850151600019600388901b60f8161c191681555b5050505050600190811b01905550565b60008351611ede818460208801611978565b835190830190611ef2818360208801611978565b01949350505050565b634e487b7160e01b600052601160045260246000fd5b8082018082111561044d5761044d611efb565b634e487b7160e01b600052603260045260246000fd5b600060018201611f4c57611f4c611efb565b5060010190565b6001600160a01b0385811682528416602082015260408101839052608060608201819052600090611f869083018461199c565b9695505050505050565b600060208284031215611fa257600080fd5b81516116068161194556fea264697066735822122018b4ba8dd3717a6c72fb1fb3ee022e5ba43453494db0416afe161d77fa8ad8a964736f6c63430008140033",
  "linkReferences": {},
  "deployedLinkReferences": {}
}