{
  "_format": "hh-sol-artifact-1",
  "contractName": "NFTCollectionContract",
  "sourceName": "src/NFTMarketplace.sol 19-09-20-166.sol",
  "abi": [
    {
      "inputs": [
        {
          "internalType": "string",
          "name": "name",
          "type": "string"
        },
        {
          "internalType": "string",
          "name": "symbol",
          "type": "string"
        },
        {
          "internalType": "address",
          "name": "collectionOwner",
          "type": "address"
        }
      ],
      "stateMutability": "nonpayable",
      "type": "constructor"
    },
    {
      "inputs": [
        {
          "internalType": "address",
          "name": "sender",
          "type": "address"
        },
        {
          "internalType": "uint256",
          "name": "tokenId",
          "type": "uint256"
        },
        {
          "internalType": "address",
          "name": "owner",
          "type": "address"
        }
      ],
      "name": "ERC721IncorrectOwner",
      "type": "error"
    },
    {
      "inputs": [
        {
          "internalType": "address",
          "name": "operator",
          "type": "address"
        },
        {
          "internalType": "uint256",
          "name": "tokenId",
          "type": "uint256"
        }
      ],
      "name": "ERC721InsufficientApproval",
      "type": "error"
    },
    {
      "inputs": [
        {
          "internalType": "address",
          "name": "approver",
          "type": "address"
        }
      ],
      "name": "ERC721InvalidApprover",
      "type": "error"
    },
    {
      "inputs": [
        {
          "internalType": "address",
          "name": "operator",
          "type": "address"
        }
      ],
      "name": "ERC721InvalidOperator",
      "type": "error"
    },
    {
      "inputs": [
        {
          "internalType": "address",
          "name": "owner",
          "type": "address"
        }
      ],
      "name": "ERC721InvalidOwner",
      "type": "error"
    },
    {
      "inputs": [
        {
          "internalType": "address",
          "name": "receiver",
          "type": "address"
        }
      ],
      "name": "ERC721InvalidReceiver",
      "type": "error"
    },
    {
      "inputs": [
        {
          "internalType": "address",
          "name": "sender",
          "type": "address"
        }
      ],
      "name": "ERC721InvalidSender",
      "type": "error"
    },
    {
      "inputs": [
        {
          "internalType": "uint256",
          "name": "tokenId",
          "type": "uint256"
        }
      ],
      "name": "ERC721NonexistentToken",
      "type": "error"
    },
    {
      "inputs": [
        {
          "internalType": "address",
          "name": "owner",
          "type": "address"
        }
      ],
      "name": "OwnableInvalidOwner",
      "type": "error"
    },
    {
      "inputs": [
        {
          "internalType": "address",
          "name": "account",
          "type": "address"
        }
      ],
      "name": "OwnableUnauthorizedAccount",
      "type": "error"
    },
    {
      "anonymous": false,
      "inputs": [
        {
          "indexed": true,
          "internalType": "address",
          "name": "owner",
          "type": "address"
        },
        {
          "indexed": true,
          "internalType": "address",
          "name": "approved",
          "type": "address"
        },
        {
          "indexed": true,
          "internalType": "uint256",
          "name": "tokenId",
          "type": "uint256"
        }
      ],
      "name": "Approval",
      "type": "event"
    },
    {
      "anonymous": false,
      "inputs": [
        {
          "indexed": true,
          "internalType": "address",
          "name": "owner",
          "type": "address"
        },
        {
          "indexed": true,
          "internalType": "address",
          "name": "operator",
          "type": "address"
        },
        {
          "indexed": false,
          "internalType": "bool",
          "name": "approved",
          "type": "bool"
        }
      ],
      "name": "ApprovalForAll",
      "type": "event"
    },
    {
      "anonymous": false,
      "inputs": [
        {
          "indexed": false,
          "internalType": "uint256",
          "name": "_fromTokenId",
          "type": "uint256"
        },
        {
          "indexed": false,
          "internalType": "uint256",
          "name": "_toTokenId",
          "type": "uint256"
        }
      ],
      "name": "BatchMetadataUpdate",
      "type": "event"
    },
    {
      "anonymous": false,
      "inputs": [
        {
          "indexed": false,
          "internalType": "uint256",
          "name": "_tokenId",
          "type": "uint256"
        }
      ],
      "name": "MetadataUpdate",
      "type": "event"
    },
    {
      "anonymous": false,
      "inputs": [
        {
          "indexed": true,
          "internalType": "address",
          "name": "previousOwner",
          "type": "address"
        },
        {
          "indexed": true,
          "internalType": "address",
          "name": "newOwner",
          "type": "address"
        }
      ],
      "name": "OwnershipTransferred",
      "type": "event"
    },
    {
      "anonymous": false,
      "inputs": [
        {
          "indexed": true,
          "internalType": "address",
          "name": "from",
          "type": "address"
        },
        {
          "indexed": true,
          "internalType": "address",
          "name": "to",
          "type": "address"
        },
        {
          "indexed": true,
          "internalType": "uint256",
          "name": "tokenId",
          "type": "uint256"
        }
      ],
      "name": "Transfer",
      "type": "event"
    },
    {
      "inputs": [
        {
          "internalType": "address",
          "name": "to",
          "type": "address"
        },
        {
          "internalType": "uint256",
          "name": "tokenId",
          "type": "uint256"
        }
      ],
      "name": "approve",
      "outputs": [],
      "stateMutability": "nonpayable",
      "type": "function"
    },
    {
      "inputs": [
        {
          "internalType": "address",
          "name": "owner",
          "type": "address"
        }
      ],
      "name": "balanceOf",
      "outputs": [
        {
          "internalType": "uint256",
          "name": "",
          "type": "uint256"
        }
      ],
      "stateMutability": "view",
      "type": "function"
    },
    {
      "inputs": [],
      "name": "getAllNFTs",
      "outputs": [
        {
          "components": [
            {
              "internalType": "uint256",
              "name": "id",
              "type": "uint256"
            },
            {
              "internalType": "address",
              "name": "creator",
              "type": "address"
            },
            {
              "internalType": "address",
              "name": "owner",
              "type": "address"
            },
            {
              "internalType": "string",
              "name": "uri",
              "type": "string"
            },
            {
              "internalType": "uint256",
              "name": "price",
              "type": "uint256"
            },
            {
              "internalType": "bool",
              "name": "isForSale",
              "type": "bool"
            }
          ],
          "internalType": "struct NFTCollectionContract.NFT[]",
          "name": "",
          "type": "tuple[]"
        }
      ],
      "stateMutability": "view",
      "type": "function"
    },
    {
      "inputs": [
        {
          "internalType": "uint256",
          "name": "tokenId",
          "type": "uint256"
        }
      ],
      "name": "getApproved",
      "outputs": [
        {
          "internalType": "address",
          "name": "",
          "type": "address"
        }
      ],
      "stateMutability": "view",
      "type": "function"
    },
    {
      "inputs": [
        {
          "internalType": "address",
          "name": "owner",
          "type": "address"
        }
      ],
      "name": "getNFTsByOwner",
      "outputs": [
        {
          "components": [
            {
              "internalType": "uint256",
              "name": "id",
              "type": "uint256"
            },
            {
              "internalType": "address",
              "name": "creator",
              "type": "address"
            },
            {
              "internalType": "address",
              "name": "owner",
              "type": "address"
            },
            {
              "internalType": "string",
              "name": "uri",
              "type": "string"
            },
            {
              "internalType": "uint256",
              "name": "price",
              "type": "uint256"
            },
            {
              "internalType": "bool",
              "name": "isForSale",
              "type": "bool"
            }
          ],
          "internalType": "struct NFTCollectionContract.NFT[]",
          "name": "",
          "type": "tuple[]"
        }
      ],
      "stateMutability": "view",
      "type": "function"
    },
    {
      "inputs": [
        {
          "internalType": "address",
          "name": "owner",
          "type": "address"
        },
        {
          "internalType": "address",
          "name": "operator",
          "type": "address"
        }
      ],
      "name": "isApprovedForAll",
      "outputs": [
        {
          "internalType": "bool",
          "name": "",
          "type": "bool"
        }
      ],
      "stateMutability": "view",
      "type": "function"
    },
    {
      "inputs": [
        {
          "internalType": "string",
          "name": "tokenURI",
          "type": "string"
        },
        {
          "internalType": "uint256",
          "name": "price",
          "type": "uint256"
        }
      ],
      "name": "mintNFT",
      "outputs": [
        {
          "internalType": "uint256",
          "name": "",
          "type": "uint256"
        }
      ],
      "stateMutability": "nonpayable",
      "type": "function"
    },
    {
      "inputs": [],
      "name": "name",
      "outputs": [
        {
          "internalType": "string",
          "name": "",
          "type": "string"
        }
      ],
      "stateMutability": "view",
      "type": "function"
    },
    {
      "inputs": [
        {
          "internalType": "uint256",
          "name": "",
          "type": "uint256"
        }
      ],
      "name": "nfts",
      "outputs": [
        {
          "internalType": "uint256",
          "name": "id",
          "type": "uint256"
        },
        {
          "internalType": "address",
          "name": "creator",
          "type": "address"
        },
        {
          "internalType": "address",
          "name": "owner",
          "type": "address"
        },
        {
          "internalType": "string",
          "name": "uri",
          "type": "string"
        },
        {
          "internalType": "uint256",
          "name": "price",
          "type": "uint256"
        },
        {
          "internalType": "bool",
          "name": "isForSale",
          "type": "bool"
        }
      ],
      "stateMutability": "view",
      "type": "function"
    },
    {
      "inputs": [],
      "name": "owner",
      "outputs": [
        {
          "internalType": "address",
          "name": "",
          "type": "address"
        }
      ],
      "stateMutability": "view",
      "type": "function"
    },
    {
      "inputs": [
        {
          "internalType": "uint256",
          "name": "tokenId",
          "type": "uint256"
        }
      ],
      "name": "ownerOf",
      "outputs": [
        {
          "internalType": "address",
          "name": "",
          "type": "address"
        }
      ],
      "stateMutability": "view",
      "type": "function"
    },
    {
      "inputs": [],
      "name": "renounceOwnership",
      "outputs": [],
      "stateMutability": "nonpayable",
      "type": "function"
    },
    {
      "inputs": [
        {
          "internalType": "address",
          "name": "from",
          "type": "address"
        },
        {
          "internalType": "address",
          "name": "to",
          "type": "address"
        },
        {
          "internalType": "uint256",
          "name": "tokenId",
          "type": "uint256"
        }
      ],
      "name": "safeTransferFrom",
      "outputs": [],
      "stateMutability": "nonpayable",
      "type": "function"
    },
    {
      "inputs": [
        {
          "internalType": "address",
          "name": "from",
          "type": "address"
        },
        {
          "internalType": "address",
          "name": "to",
          "type": "address"
        },
        {
          "internalType": "uint256",
          "name": "tokenId",
          "type": "uint256"
        },
        {
          "internalType": "bytes",
          "name": "data",
          "type": "bytes"
        }
      ],
      "name": "safeTransferFrom",
      "outputs": [],
      "stateMutability": "nonpayable",
      "type": "function"
    },
    {
      "inputs": [
        {
          "internalType": "address",
          "name": "operator",
          "type": "address"
        },
        {
          "internalType": "bool",
          "name": "approved",
          "type": "bool"
        }
      ],
      "name": "setApprovalForAll",
      "outputs": [],
      "stateMutability": "nonpayable",
      "type": "function"
    },
    {
      "inputs": [
        {
          "internalType": "bytes4",
          "name": "interfaceId",
          "type": "bytes4"
        }
      ],
      "name": "supportsInterface",
      "outputs": [
        {
          "internalType": "bool",
          "name": "",
          "type": "bool"
        }
      ],
      "stateMutability": "view",
      "type": "function"
    },
    {
      "inputs": [],
      "name": "symbol",
      "outputs": [
        {
          "internalType": "string",
          "name": "",
          "type": "string"
        }
      ],
      "stateMutability": "view",
      "type": "function"
    },
    {
      "inputs": [
        {
          "internalType": "uint256",
          "name": "tokenId",
          "type": "uint256"
        }
      ],
      "name": "tokenURI",
      "outputs": [
        {
          "internalType": "string",
          "name": "",
          "type": "string"
        }
      ],
      "stateMutability": "view",
      "type": "function"
    },
    {
      "inputs": [
        {
          "internalType": "address",
          "name": "from",
          "type": "address"
        },
        {
          "internalType": "address",
          "name": "to",
          "type": "address"
        },
        {
          "internalType": "uint256",
          "name": "tokenId",
          "type": "uint256"
        }
      ],
      "name": "transferFrom",
      "outputs": [],
      "stateMutability": "nonpayable",
      "type": "function"
    },
    {
      "inputs": [
        {
          "internalType": "address",
          "name": "newOwner",
          "type": "address"
        }
      ],
      "name": "transferOwnership",
      "outputs": [],
      "stateMutability": "nonpayable",
      "type": "function"
    }
  ],
  "bytecode": "0x60806040523480156200001157600080fd5b5060405162001eeb38038062001eeb8339810160408190526200003491620001b2565b8083836000620000458382620002ce565b506001620000548282620002ce565b5050506001600160a01b0381166200008657604051631e4fbdf760e01b81526000600482015260240160405180910390fd5b62000091816200009b565b505050506200039a565b600780546001600160a01b038381166001600160a01b0319831681179093556040519116919082907f8be0079c531659141344cd1fd0a4f28419497f9722a3daafe3b4186f6b6457e090600090a35050565b634e487b7160e01b600052604160045260246000fd5b600082601f8301126200011557600080fd5b81516001600160401b0380821115620001325762000132620000ed565b604051601f8301601f19908116603f011681019082821181831017156200015d576200015d620000ed565b816040528381526020925086838588010111156200017a57600080fd5b600091505b838210156200019e57858201830151818301840152908201906200017f565b600093810190920192909252949350505050565b600080600060608486031215620001c857600080fd5b83516001600160401b0380821115620001e057600080fd5b620001ee8783880162000103565b945060208601519150808211156200020557600080fd5b50620002148682870162000103565b604086015190935090506001600160a01b03811681146200023457600080fd5b809150509250925092565b600181811c908216806200025457607f821691505b6020821081036200027557634e487b7160e01b600052602260045260246000fd5b50919050565b601f821115620002c957600081815260208120601f850160051c81016020861015620002a45750805b601f850160051c820191505b81811015620002c557828155600101620002b0565b5050505b505050565b81516001600160401b03811115620002ea57620002ea620000ed565b6200030281620002fb84546200023f565b846200027b565b602080601f8311600181146200033a5760008415620003215750858301515b600019600386901b1c1916600185901b178555620002c5565b600085815260208120601f198616915b828110156200036b578886015182559484019460019091019084016200034a565b50858210156200038a5787850151600019600388901b60f8161c191681555b5050505050600190811b01905550565b611b4180620003aa6000396000f3fe608060405234801561001057600080fd5b506004361061012c5760003560e01c8063715018a6116100ad578063c87b56dd11610071578063c87b56dd14610287578063e0391b091461029a578063e2afe8b3146102af578063e985e9c5146102c2578063f2fde38b146102d557600080fd5b8063715018a6146102405780638da5cb5b1461024857806395d89b4114610259578063a22cb46514610261578063b88d4fde1461027457600080fd5b8063265aa621116100f4578063265aa621146101c157806342842e0e146101e65780635afa3a72146101f95780636352211e1461021a57806370a082311461022d57600080fd5b806301ffc9a71461013157806306fdde0314610159578063081812fc1461016e578063095ea7b31461019957806323b872dd146101ae575b600080fd5b61014461013f3660046114df565b6102e8565b60405190151581526020015b60405180910390f35b610161610313565b604051610150919061154c565b61018161017c36600461155f565b6103a5565b6040516001600160a01b039091168152602001610150565b6101ac6101a7366004611594565b6103ce565b005b6101ac6101bc3660046115be565b6103dd565b6101d46101cf36600461155f565b61046d565b604051610150969594939291906115fa565b6101ac6101f43660046115be565b61053c565b61020c6102073660046116d2565b61055c565b604051908152602001610150565b61018161022836600461155f565b610650565b61020c61023b36600461172b565b61065b565b6101ac6106a3565b6007546001600160a01b0316610181565b6101616106b7565b6101ac61026f366004611746565b6106c6565b6101ac610282366004611782565b6106d1565b61016161029536600461155f565b6106e8565b6102a26107f9565b60405161015091906117fe565b6102a26102bd36600461172b565b6109d5565b6101446102d03660046118af565b610c25565b6101ac6102e336600461172b565b610c53565b60006001600160e01b03198216632483248360e11b148061030d575061030d82610c91565b92915050565b606060008054610322906118e2565b80601f016020809104026020016040519081016040528092919081815260200182805461034e906118e2565b801561039b5780601f106103705761010080835404028352916020019161039b565b820191906000526020600020905b81548152906001019060200180831161037e57829003601f168201915b5050505050905090565b60006103b082610ce1565b506000828152600460205260409020546001600160a01b031661030d565b6103d9828233610d1a565b5050565b6001600160a01b03821661040c57604051633250574960e11b8152600060048201526024015b60405180910390fd5b6000610419838333610d27565b9050836001600160a01b0316816001600160a01b031614610467576040516364283d7b60e01b81526001600160a01b0380861660048301526024820184905282166044820152606401610403565b50505050565b600960205260009081526040902080546001820154600283015460038401805493946001600160a01b039384169493909216926104a9906118e2565b80601f01602080910402602001604051908101604052809291908181526020018280546104d5906118e2565b80156105225780601f106104f757610100808354040283529160200191610522565b820191906000526020600020905b81548152906001019060200180831161050557829003601f168201915b50505050600483015460059093015491929160ff16905086565b610557838383604051806020016040528060008152506106d1565b505050565b6000610566610e20565b610574600880546001019055565b600061057f60085490565b905061058b3382610e4d565b6105958185610eb2565b6040805160c0810182528281523360208083018281528385019283526060840189815260808501899052600160a08601819052600088815260099094529590922084518155905194810180546001600160a01b03199081166001600160a01b03978816179091559251600282018054909416951694909417909155519091906003820190610623908261196a565b506080820151600482015560a0909101516005909101805460ff1916911515919091179055905092915050565b600061030d82610ce1565b60006001600160a01b038216610687576040516322718ad960e21b815260006004820152602401610403565b506001600160a01b031660009081526003602052604090205490565b6106ab610e20565b6106b56000610f02565b565b606060018054610322906118e2565b6103d9338383610f54565b6106dc8484846103dd565b61046784848484610ff3565b60606106f382610ce1565b506000828152600660205260408120805461070d906118e2565b80601f0160208091040260200160405190810160405280929190818152602001828054610739906118e2565b80156107865780601f1061075b57610100808354040283529160200191610786565b820191906000526020600020905b81548152906001019060200180831161076957829003601f168201915b5050505050905060006107a460408051602081019091526000815290565b905080516000036107b6575092915050565b8151156107e85780826040516020016107d0929190611a2a565b60405160208183030381529060405292505050919050565b6107f18461111c565b949350505050565b6060600061080660085490565b905060008167ffffffffffffffff81111561082357610823611646565b60405190808252806020026020018201604052801561088257816020015b6040805160c081018252600080825260208083018290529282018190526060808301526080820181905260a082015282526000199092019101816108415790505b50905060005b828110156109ce5760006009816108a0846001611a6f565b81526020808201929092526040908101600020815160c0810183528154815260018201546001600160a01b039081169482019490945260028201549093169183019190915260038101805491935083916060840191906108ff906118e2565b80601f016020809104026020016040519081016040528092919081815260200182805461092b906118e2565b80156109785780601f1061094d57610100808354040283529160200191610978565b820191906000526020600020905b81548152906001019060200180831161095b57829003601f168201915b50505091835250506004820154602082015260059091015460ff16151560409091015283518490849081106109af576109af611a82565b60200260200101819052505080806109c690611a98565b915050610888565b5092915050565b606060006109e260085490565b9050600060015b828111610a34576000818152600960205260409020600201546001600160a01b03808716911603610a225781610a1e81611a98565b9250505b80610a2c81611a98565b9150506109e9565b5060008167ffffffffffffffff811115610a5057610a50611646565b604051908082528060200260200182016040528015610aaf57816020015b6040805160c081018252600080825260208083018290529282018190526060808301526080820181905260a08201528252600019909201910181610a6e5790505b509050600060015b848111610c1a576000818152600960205260409020600201546001600160a01b03808916911603610c0857600081815260096020908152604091829020825160c0810184528154815260018201546001600160a01b0390811693820193909352600282015490921692820192909252600382018054919291606084019190610b3e906118e2565b80601f0160208091040260200160405190810160405280929190818152602001828054610b6a906118e2565b8015610bb75780601f10610b8c57610100808354040283529160200191610bb7565b820191906000526020600020905b815481529060010190602001808311610b9a57829003601f168201915b50505091835250506004820154602082015260059091015460ff1615156040909101528351849084908110610bee57610bee611a82565b60200260200101819052508180610c0490611a98565b9250505b80610c1281611a98565b915050610ab7565b509095945050505050565b6001600160a01b03918216600090815260056020908152604080832093909416825291909152205460ff1690565b610c5b610e20565b6001600160a01b038116610c8557604051631e4fbdf760e01b815260006004820152602401610403565b610c8e81610f02565b50565b60006001600160e01b031982166380ac58cd60e01b1480610cc257506001600160e01b03198216635b5e139f60e01b145b8061030d57506301ffc9a760e01b6001600160e01b031983161461030d565b6000818152600260205260408120546001600160a01b03168061030d57604051637e27328960e01b815260048101849052602401610403565b6105578383836001611191565b6000828152600260205260408120546001600160a01b0390811690831615610d5457610d54818486611297565b6001600160a01b03811615610d9257610d71600085600080611191565b6001600160a01b038116600090815260036020526040902080546000190190555b6001600160a01b03851615610dc1576001600160a01b0385166000908152600360205260409020805460010190555b60008481526002602052604080822080546001600160a01b0319166001600160a01b0389811691821790925591518793918516917fddf252ad1be2c89b69c2b068fc378daa952ba7f163c4a11628f55a4df523b3ef91a4949350505050565b6007546001600160a01b031633146106b55760405163118cdaa760e01b8152336004820152602401610403565b6001600160a01b038216610e7757604051633250574960e11b815260006004820152602401610403565b6000610e8583836000610d27565b90506001600160a01b03811615610557576040516339e3563760e11b815260006004820152602401610403565b6000828152600660205260409020610eca828261196a565b506040518281527ff8e1a15aba9398e019f0b49df1a4fde98ee17ae345cb5f6b5e2c27f5033e8ce79060200160405180910390a15050565b600780546001600160a01b038381166001600160a01b0319831681179093556040519116919082907f8be0079c531659141344cd1fd0a4f28419497f9722a3daafe3b4186f6b6457e090600090a35050565b6001600160a01b038216610f8657604051630b61174360e31b81526001600160a01b0383166004820152602401610403565b6001600160a01b03838116600081815260056020908152604080832094871680845294825291829020805460ff191686151590811790915591519182527f17307eab39ab6107e8899845ad3d59bd9653f200f220920489ca2b5937696c31910160405180910390a3505050565b6001600160a01b0383163b1561046757604051630a85bd0160e11b81526001600160a01b0384169063150b7a0290611035903390889087908790600401611ab1565b6020604051808303816000875af1925050508015611070575060408051601f3d908101601f1916820190925261106d91810190611aee565b60015b6110d9573d80801561109e576040519150601f19603f3d011682016040523d82523d6000602084013e6110a3565b606091505b5080516000036110d157604051633250574960e11b81526001600160a01b0385166004820152602401610403565b805181602001fd5b6001600160e01b03198116630a85bd0160e11b1461111557604051633250574960e11b81526001600160a01b0385166004820152602401610403565b5050505050565b606061112782610ce1565b50600061113f60408051602081019091526000815290565b9050600081511161115f576040518060200160405280600081525061118a565b80611169846112fb565b60405160200161117a929190611a2a565b6040516020818303038152906040525b9392505050565b80806111a557506001600160a01b03821615155b156112675760006111b584610ce1565b90506001600160a01b038316158015906111e15750826001600160a01b0316816001600160a01b031614155b80156111f457506111f28184610c25565b155b1561121d5760405163a9fbf51f60e01b81526001600160a01b0384166004820152602401610403565b81156112655783856001600160a01b0316826001600160a01b03167f8c5be1e5ebec7d5bd14f71427d1e84f3dd0314c0f7b2291e5b200ac8c7c3b92560405160405180910390a45b505b5050600090815260046020526040902080546001600160a01b0319166001600160a01b0392909216919091179055565b6112a283838361138e565b610557576001600160a01b0383166112d057604051637e27328960e01b815260048101829052602401610403565b60405163177e802f60e01b81526001600160a01b038316600482015260248101829052604401610403565b60606000611308836113f1565b600101905060008167ffffffffffffffff81111561132857611328611646565b6040519080825280601f01601f191660200182016040528015611352576020820181803683370190505b5090508181016020015b600019016f181899199a1a9b1b9c1cb0b131b232b360811b600a86061a8153600a850494508461135c57509392505050565b60006001600160a01b038316158015906107f15750826001600160a01b0316846001600160a01b031614806113c857506113c88484610c25565b806107f15750506000908152600460205260409020546001600160a01b03908116911614919050565b60008072184f03e93ff9f4daa797ed6e38ed64bf6a1f0160401b83106114305772184f03e93ff9f4daa797ed6e38ed64bf6a1f0160401b830492506040015b6d04ee2d6d415b85acef8100000000831061145c576d04ee2d6d415b85acef8100000000830492506020015b662386f26fc10000831061147a57662386f26fc10000830492506010015b6305f5e1008310611492576305f5e100830492506008015b61271083106114a657612710830492506004015b606483106114b8576064830492506002015b600a831061030d5760010192915050565b6001600160e01b031981168114610c8e57600080fd5b6000602082840312156114f157600080fd5b813561118a816114c9565b60005b838110156115175781810151838201526020016114ff565b50506000910152565b600081518084526115388160208601602086016114fc565b601f01601f19169290920160200192915050565b60208152600061118a6020830184611520565b60006020828403121561157157600080fd5b5035919050565b80356001600160a01b038116811461158f57600080fd5b919050565b600080604083850312156115a757600080fd5b6115b083611578565b946020939093013593505050565b6000806000606084860312156115d357600080fd5b6115dc84611578565b92506115ea60208501611578565b9150604084013590509250925092565b8681526001600160a01b0386811660208301528516604082015260c06060820181905260009061162c90830186611520565b60808301949094525090151560a090910152949350505050565b634e487b7160e01b600052604160045260246000fd5b600067ffffffffffffffff8084111561167757611677611646565b604051601f8501601f19908116603f0116810190828211818310171561169f5761169f611646565b816040528093508581528686860111156116b857600080fd5b858560208301376000602087830101525050509392505050565b600080604083850312156116e557600080fd5b823567ffffffffffffffff8111156116fc57600080fd5b8301601f8101851361170d57600080fd5b61171c8582356020840161165c565b95602094909401359450505050565b60006020828403121561173d57600080fd5b61118a82611578565b6000806040838503121561175957600080fd5b61176283611578565b91506020830135801515811461177757600080fd5b809150509250929050565b6000806000806080858703121561179857600080fd5b6117a185611578565b93506117af60208601611578565b925060408501359150606085013567ffffffffffffffff8111156117d257600080fd5b8501601f810187136117e357600080fd5b6117f28782356020840161165c565b91505092959194509250565b60006020808301818452808551808352604092508286019150828160051b87010184880160005b838110156118a157888303603f19018552815180518452878101516001600160a01b039081168986015287820151168785015260608082015160c0828701819052919061187483880182611520565b6080858101519089015260a094850151151594909701939093525050509386019390860190600101611825565b509098975050505050505050565b600080604083850312156118c257600080fd5b6118cb83611578565b91506118d960208401611578565b90509250929050565b600181811c908216806118f657607f821691505b60208210810361191657634e487b7160e01b600052602260045260246000fd5b50919050565b601f82111561055757600081815260208120601f850160051c810160208610156119435750805b601f850160051c820191505b818110156119625782815560010161194f565b505050505050565b815167ffffffffffffffff81111561198457611984611646565b6119988161199284546118e2565b8461191c565b602080601f8311600181146119cd57600084156119b55750858301515b600019600386901b1c1916600185901b178555611962565b600085815260208120601f198616915b828110156119fc578886015182559484019460019091019084016119dd565b5085821015611a1a5787850151600019600388901b60f8161c191681555b5050505050600190811b01905550565b60008351611a3c8184602088016114fc565b835190830190611a508183602088016114fc565b01949350505050565b634e487b7160e01b600052601160045260246000fd5b8082018082111561030d5761030d611a59565b634e487b7160e01b600052603260045260246000fd5b600060018201611aaa57611aaa611a59565b5060010190565b6001600160a01b0385811682528416602082015260408101839052608060608201819052600090611ae490830184611520565b9695505050505050565b600060208284031215611b0057600080fd5b815161118a816114c956fea26469706673582212200ff54e702a4ff1ac0ad2b4e3028fbef6a0a0a4e7e74142be4f28cce28d1178a364736f6c63430008140033",
  "linkReferences": {},
  "deployedLinkReferences": {}
}